:020000040800F2
:08000000000C00206D00000857
:100008000B4A0221130090690842FCD18021106834
:10001800490001431160012259691142FCD078223C
:100028001A61763A59691142FCD09B697047C046FB
:10003800005400400422054B59691142FCD080222B
:10004800196892000A431A607047C046005400407D
:100058008022034B59691142FCD018617047C04691
:10006800005400406B4885465B4A5C4B5C499A608B
:100078005C4A5D4B8B4200D291E001225B4B5C49AC
:100088001A605C4B09685A68120C12040A438021F2
:1000980009020A435A608022196852040A431A6006
:1000A8008022920419681142FCD002229A603632EA
:1000B800986810401028FBD1052423224E490F26AA
:1000C8000C605A635D6B033A2A430A255A634B4A0C
:1000D8001768B7433D431560032557683D4355608E
:1000E800D568B5432C43FF25D460146AAC4325007A
:1000F800CC242C4314628022DC6B92032243DA6303
:1001080004223F4B33245A603E4ADA6101221862C6
:1001180080201A600B0000213B4A4002013C002C61
:1001280040D1FFF76DFF394BE05C0134FFF790FFDA
:10013800122CF8D1FFF77EFFFFF762FF4020FFF790
:1001480087FFD23C2300324D403B03930020039BA2
:10015800019332239C4600231E00400832001F00F2
:1001680072435F4312123F12D11902920A00802192
:10017800C9008A421CDD80231843019B0833019380
:100188009C42E6D10635FFF763FF9C2DDED1A02304
:1001980040345B009C42D5D1FFF74CFFFEE701CA13
:1001A80001C367E75A6099601D680542FCD0B5E74E
:1001B8007F217343029AD21BDF170F40FB18019966
:1001C800DB115B18012149428C4461465219002910
:1001D800D3D01600C2E7C0460000000800ED00E0DA
:1001E8000000002034020008000000200020024027
:1001F800100FFF1F0010024010E000E00014005034
:1002080000540040288000007FBB00002002000846
:080218009CFDFFFF000C00201B
:1002200000A83F8D14200021007F22003FDA12A198
:04023000C8AF000053
:040000050800006D82
:00000001FF
