:040000006F10201746
:0400040000000000F8
:10000800B706002093860600984213162700931718
:100018001700B18F4207C183D98F33F5A7029CC25D
:1000280082803737014083578700898BEDDF42058F
:1000380041812316A7008280411106C63737014047
:100048008357870093F70708E5FF13070004B717DE
:10005800014023AAE780F1373737014083578700EB
:1000680093F70708E5FFB240B717014013070004EC
:1000780023A8E78041018280411106C622C426C216
:100088003284AE84553F13D58400613F13F5F40FD5
:10009800493F1355840071371375F40F2244B24059
:1000A80092444101BDBF9385550341111305850253
:1000B800C20526C2C181FD169314050122C4C18060
:1000C8001304F6FF3386D5002694420641821305B1
:1000D800A002420406C6418045372286A68513053C
:1000E800B002593F2244B24092441305C002410174
:1000F800A1B741114AC003C9818126C206C69384AB
:10010800818122C4AA8713879181630A09028346E1
:10011800070091833181558D13F4F70F2300A70051
:10012800238D8180FD3D2285ED3DB24022449337E9
:1001380019002380F4000249924441018280937699
:1001480005FF2300D7002181C5B7411122C49306BA
:1001580070081306000F81450145316406C6130473
:1001680084DD913701457D146D3D6DFCB24022441C
:10017800410182801317050141839306F00E63E95C
:10018800E60293970501C183130760086362F702CB
:10019800411122C485463284054606C629371355BF
:1001A800840041351375F40F2244B240410195BDD6
:1001B800828039714ED69319060193D909014AD81C
:1001C8000549330939418609B30930415AD05ECE11
:1001D8004209C209131B0501939B050122DC26DA9B
:1001E80056D206DE52D462CC66CAB28AB684135995
:1001F800094193D909410144135B0B0193DB0B01BE
:1002080063DF8A00F2506254D2544259B259225ADA
:10021800925A025BF24B624CD24C216182804204BA
:100228004180139A0A01135A0A01B30C8B00C20CBD
:10023800B3854B0193DC0C41C205C18566852686D2
:100248002EC6330C8B403D37B245420C135C0C4133
:10025800628526860537B3854B41C205C18566850B
:1002680026862EC6013FB245628526862137B30C05
:100278004B01C20CB3858B0093DC0C41C205C185D0
:10028800268666852EC6330C4B41ED35B245420CA9
:10029800135C0C4126866285F13DB3858B40C2050F
:1002A800C185268666852EC6F135B24526866285C5
:1002B800D13563420902938729001306FAFF3E9954
:1002C800931A060193990701420993DA0A4193D9CF
:1002D800094113590941931714008D073E990504E4
:1002E8004209420413590941418419BF797122D442
:1002F80026D24ECE56CA5AC85EC606D64AD052CC68
:1003080062C466C26AC0AA893A843E8BAE84B38A44
:10031800D500B30BC50063CF5405B2502254925494
:100328000259F249624AD24A424BB24B224C924C91
:10033800024D45618280034C040005042689635DF3
:100348002D01330A9401420A135A0A41E3457AFF00
:10035800A104C204C184C1B793771C0089C75A8617
:10036800CA855285013D0509420913590941135CA3
:100378001C00F1B7B38C8940138D7400D9B7056799
:1003880093174500130707F0F98F3D895D8D4205E6
:100398004185931725005D8D8D67938737337D8D54
:1003A800931715005D8D9567938757557D8D931726
:1003B80015005D8D420541818280397156D25ECE2D
:1003C800839B418126DA93960501AE8483956181EA
:1003D8004AD832891316050122DCC1862A8441864F
:1003E8005E858D804ED66AC86EC606DE52D45AD057
:1003F80062CC66CA9379F40F7D3113FDF40F938AAA
:100408004181330CA9014A8B137CFC0F834C0B00F0
:10041800050B214A93F71C00014599C303D50181B7
:100428007D1A137AFA0FF13193DC1C00E3140AFEEB
:100438009377FB0FE39C87FDFD1993F9F90F269934
:10044800E39109FC5E9423908A00F2506254D254DE
:100458004259B259225A925A025BF24B624CD24C20
:10046800424DB24D216182809307F00E63C0A70C04
:100478009307600863CCB70A2A96420641866357F9
:10048800C00AAE9693970601C1876351F00A01111D
:1004980026CA06CE22CC4AC84EC652C4BA842A8777
:1004A8006353050001471315070141852E8763D360
:1004B80005000147931507011307000FC185328412
:1004C8006354C7001304000F098C42041307700813
:1004D80041843E896354F700130970083309B94011
:1004E800420913590941228633042403CA86653E0A
:1004F80093D7C40093F9040F13DA84009180B3E909
:10050800F90093F4F40F0504058409E8F240624405
:10051800D2444249B249224A056182805285113645
:100528004E8501362685F53C7D14C5B78280635516
:10053800C0006353D0000DBF828001114AC83689BC
:10054800854606CE22CC26CA4EC652C4AE842A8A16
:10055800BA893284E93F9305F9FFA695C2054E870B
:10056800228652858546C185D9374E87CA86A68593
:10057800528505466D3F7D14330544016244F240BF
:10058800224A4E87CA86B2494249A685D2444205C4
:1005980005464185056161BF39714AD813190601BD
:1005A8001359090126DA8544B3842441060933091D
:1005B800204152D456D2C2044209131A0501939A13
:1005C800050122DC5AD05ECE06DE4ED6B28B368BC3
:1005D800C184135909410144135A0A0193DA0A01E3
:1005E80063DD8B00F2506254D2544259B259225AF8
:1005F800925A025BF24B2161828093990B0193D945
:1006080009014204418093961900B3853A41850651
:1006180033058A40C205C2064205C185C1865A878C
:100628000546418536C62EC41937B246A24533055C
:100638008A0042055A8705464185D53D9316140020
:10064800B3858A40850633053A41C205C20642058C
:10065800C185C1865A870546418536C62EC4C13D27
:1006680033053A01B246A24542055A8705464185F7
:100678007D3D63C0040293072900FD19BE94939B36
:10068800090113990701C20493DB0B41135909416E
:10069800C184050493170401C18386078507BE94A6
:1006A8004204C2044184C18425BF5D71CAC0056982
:1006B8004EDE52DC86C6A2C4A6C256DA5AD85ED628
:1006C80062D466D26AD06ECEAA891309092883C774
:1006D800090085E3B640264496440649F259625A11
:1006E800D25A425BB25B225C925C025DF24D616160
:1006F800828013F4F70793F7070685096383071EBB
:10070800011442044180931724003E9483C421813C
:100718004204A147418063E2970A93971400139615
:1007280024003E96839C4181839561819396340091
:10073800137CF60F93F6860F1376E60F6685A532BF
:10074800194B938A418185470147630AFB00930748
:1007580014004A9403470400139407014180A68BB0
:10076800639B0B007D1B137BFB0FE31E0BFC669C3E
:1007780023908A01A9BFBA8D214D93F71D00014529
:1007880099C303D50181A68791EF7D1D93DD1D00D7
:10079800137DFD0F93FDFD0FE3110DFEFD1B93FB74
:1007A800FB0F7DBF3AC63EC42AC2A132A2473247D8
:1007B8001245FD1793F7F70FC1BFA547938BC1816A
:1007C8006392F40E130C14004A94834A0400420CFA
:1007D800135C0C01568565362A842A8D154B854491
:1007E800E287050C420CCA9783CD0700135C0C0105
:1007F80063139B00814D6E8559362A87B947194680
:100808008945B3D6CA40B3D8CD408D8A93F838000D
:100818006392B602639098049386F7FFB396D40068
:10082800558C42044180B396F40015A02A843A8D71
:10083800EE8A7DB763909602639EB800B396F40083
:10084800558C42049386F7FF4180B396D400558FA8
:1008580042074183F9177D16CDF72380AB01135D5D
:100868008D0023818B00A380AB0121807D1B137B2E
:10087800FB0FA3818B00910BE31A0BFA1386C1813E
:10088800C14529451D3E9384418103940400839505
:10089800618122850147C14609460904F136239042
:1008A800840035B5130B5400420B135B0B01938482
:1008B800C181A287CA9703C5070005044204C13451
:1008C8002380A400890421814180A38FA4FEE31220
:1008D80064FF23950B001386C181C1451945F13C7E
:1008E800FDB3A9476314F40283C62181138761818C
:1008F800239A01802146835707006367D6008E0636
:10090800B6972310F700E1B3C107E5BFB547E31079
:10091800F4DC239A018065BBB7F700E09C4737F702
:1009280000E03E951C47898FE3CE07FE828059710F
:1009380086D6A6D2DEC6E2C4E6C2C145A2D4CAD0D3
:10094800CECED2CCD6CADAC8EAC06EDEB71701401E
:1009580023A8B7801307000423A8E78003A707800C
:100968003706F1FF7D16718F37060300518F23A0DC
:10097800E78003A70780370600F17D16718F3706D9
:100988000003518F23A0E78037150240184D0566F4
:100998001506518F18CD03A707803706100F7D164F
:1009A800718F3706B0B0518F23A0E7807177938697
:1009B800078013074734B73701402390E70003D770
:1009C80007000545056C42074183136727002390FC
:1009D800E70003D70700856CC164420741831367AA
:1009E80017002390E700CCCAEFF00FE537A52400E5
:1009F800130505F0153713056003EFF0EFE3130552
:100A08000004EFF00FE21305A003EFF0EFE20D454D
:100A1800EFF02FE113051002EFF00FE24545EFF07C
:100A2800AFE137E56D00130505D0FD3513059002DC
:100A3800EFF08FE093074C273EC693870C46938BC5
:100A480004F03EC8C114EFF04FF05E8793067008BB
:100A58001306000F81450145CD345E879306700863
:100A68000546814513058007D9345E8785461306F8
:100A7800000F9305300401455D3C930700F00565C0
:100A8800094A138D4181938A61812398F1808547B2
:100A9800130505202389F18023104D0123904A0175
:100AA80029310565A947130585202390FA002310ED
:100AB8004D01E53E3745950813050540B13D130A3C
:100AC800800CEFF08FE81384418113896181938949
:100AD8000181138B21811305000FEFF06FD2AA8AD1
:100AE80013057008EFF0CFD17D1A93150501420A5E
:100AF80013950A012686C1854185135A0A01EFF02C
:100B08006FE7E31A0AFC130A000213160A017D1A9A
:100B1800420ADE8641869305200313054006135AD0
:100B28000A01EFF00FE9E3120AFEBD670567130734
:100B38008766C14613060002A9459387070F5145EA
:100B4800EFF0CFFA0565130A6009C15A8947130502
:100B58004521231044012310F90023905901B1368F
:100B6800B1472310F9000565FD772390F9001305B7
:100B78000522A9472300FB00231044013D360565E3
:100B8800130D4002A54D1305C522231044012390DF
:100B980059012310A9012300BB01013E9307C0039B
:100BA8002310F9008567938707F005652390F900FE
:100BB8001305452391472300FB0023104401F53416
:100BC8003745950813050540813BEFF00FD80565BB
:100BD800930700F01305C5232390F90023100400A0
:100BE800231009002300BB01C934056713074726F2
:100BF800C1461D468145DE8713059007EFF00FEFCC
:100C080005659307E005130585242310F400239058
:100C180059012310A901513CA68713878180A14659
:100C28001D46D1451305E005EFF04FEC26879D469C
:100C38006146D14513058006EFF03F9026879D4613
:100C48003146D14513058006EFF01F8293078003D4
:100C580005652310F9001305C52485472300FB000B
:100C680023100400993426879D461306E004930553
:100C7800800313052003EFF05F8C130A4003930AE7
:100C8800200513150A01150A420A26878D461146C2
:100C98009305A0034185135A0A01EFF0EFFCE31214
:100CA8005AFFA6866546E5451305900AEFF0DF8EE4
:100CB800A6866546E5451305000EEFF08FCF26871B
:100CC80093062003130620039305C00313050009A8
:100CD800EFF08FF926879306200313062003930568
:100CE800C0031305700C096AEFF03F85130A8A6484
:100CF800D147231004002310F900528D814A954DE5
:100D0800FD1D93FDFD0F9307F00F6397FD18050A6E
:100D1800420A8D67135A0A0193878782E31AFAFCFD
:100D2800374A950813050A40C53E13050002EFF03F
:100D3800AFB013050A40CD36130510021D6AEFF057
:100D4800AFAF130A0A53EFF04FC01305000FEFF0CF
:100D58002FABAA8A13057008EFF08FAA2A8D416578
:100D6800EFF00FAA7D1A1316050193150D011395BF
:100D78000A01420A4182C1854185135A0A01EFF0EE
:100D88006FBFE3140AFCEFF04FBC130C803E130551
:100D9800000FEFF0EFA6931A050113057008EFF0A6
:100DA8002FA6131A05011305000FEFF06FA5931C6A
:100DB800050113057008EFF0AFA4931D0501416507
:100DC800EFF00FA493DA0A4193DC0C41B3875C413E
:100DD80013D7F741B98F998F13160501939E070111
:100DE800135A0A4193DD0D41418293DE0E41054EAF
:100DF80063C39A017D5EB3864D4193D5F64133C7EF
:100E0800D5000D8F42074183B306E040C206C18674
:100E1800054F6343BA017D5F139807011358080112
:100E2800330DE840420D135D0D41D28556857AD6C3
:100E380072D442D236D03ACE76CC32CAEFF08FB3E3
:100E48005246E24E724782561258225E325F6394CF
:100E58005C0163854D1193150D01C18193971500B0
:100E6800C207C18763CDD700638A5C0F998DF29A58
:100E7800139D0501C20A135D0D4193DA0A41E3C6C9
:100E8800FEFA638D4D0D429D7A9A420D420A135D1A
:100E98000D41135A0A4151BF324793971D00BA9723
:100EA80003D7070081476374ED0809476395ED0090
:100EB800850A93FAFA0F63860A0813974700139670
:100EC80057003A9642068A0741823E96C247420632
:100ED80041823E96930500023545EFF00FCE031C84
:100EE800040001479306000262850D46D145EFF0E4
:100EF800AFD713053C002310A4008947E392FDE017
:100F0800031C04000147930600021946D145628577
:100F1800EFF08FD5628526878D460D469305000331
:100F2800EFF08FD413056C002310A400D1BB330D50
:100F3800ED408507420D93F7F70F135D0D01854AC4
:100F48009DB7031C040001479306000262854146D1
:100F5800D145EFF06FD113050C0171BF1303FCFFEE
:100F6800131C0301135C0C01E3130CE2056AEFF098
:100F7800CF9D130A8A381305000FEFF06F88AA8AED
:100F880013057008EFF0CF872A8D13058007EFF05F
:100F98002F87AA8D13053004EFF08F862ACA416582
:100FA800EFF00F86D2467D1A13170501C206139675
:100FB8000D0193150D0113950A01420A4183C1865B
:100FC8004186C1854185135A0A01EFF00FD7E31412
:100FD8000AFAEFF08F97130A803E1305000FEFF01F
:100FE8002F82AA8A13057008EFF08F812A8D1305C6
:100FF8000002EFF0EF80AA8D4165EFF06F807D1A57
:101008009316050113960D0193150D0113950A0109
:10101800420AC1824186C1854185135A0A01EFF00F
:101028004F99E31C0AFAEFF04F92130A803E13051A
:10103800000FEFE0FFFCAA8A13057008EFE05FFCE1
:101048002A8D13058007EFE0BFFBAA8D1305300436
:10105800EFE01FFB2ACA4165EFE09FFAD2467D1AEE
:1010680013170501C20613960D0193150D0113956B
:101078000A01420A4183C1864186C1854185135AC6
:101088000A01EFF0CFCAE3140AFAEFF00F8C130A43
:10109800803E1305000FEFE0BFF6AA8A130570081B
:1010A800EFE01FF62A8D13050002EFE07FF5AA8D09
:1010B8004165EFE0FFF47D1A9316050113960D01C3
:1010C80093150D0113950A01420AC1824186C18513
:1010D8004185135A0A01EFF02FCCE31C0AFAEFF00E
:1010E800CF86130A401F056D856A1305000FEFE0D0
:1010F8003FF1AA8D13057008EFE09FF02310A900B7
:1011080041652310B401EFE0BFEF2390A9000D451E
:10111800EFE01FEF05052300AB0013054D25EFF0A9
:10112800CFD81305000FEFE0BFEDAA8D13057008A7
:10113800EFE01FED2310A90041652310B401EFE093
:101148003FEC2390A9000D45EFE09FEB7D1A0505C4
:10115800420A2300AB00135A0A011385CA25EFF08F
:10116800CFD4E3140AF86FF01F8E856793876793CF
:1011780097F1FF1F9381816817410020130101E84F
:101188007D45731005BC13058008732005308D4517
:1011980073904580130540004D8D73105530739042
:1011A8001734B70700200567938707001307876A76
:1011B8009386018163E8D7029387018113870183AE
:1011C80063E8E702B7270240094798C3B717024008
:1011D80023A2070037F700E0954614C3714798CF5C
:1011E8007300203010431107910723AEC7FED9B70B
:1011F800910723AE07FEE9B728302C3029000000FC
:101208007570706572206C656674000048656C6C5A
:101218006F20576F726C640031323334353637388B
:10122800393000003132333435000000544553540E
:1012380000000000464D20526164696F0000000004
:101248004D487A00566F6C756D653A0048656C6C50
:101258006F000000576F726C640000007C04070187
:101268000784DC73464C4643417C000001000A00B9
:101278006400E80310270000000000000000005F81
:1012880000000007000700147F147F14242A7F2A17
:1012980012231308646236495522500004030000E3
:1012A800001C2241000041221C0014083E081408BA
:1012B800083E080800806000000808080808006068
:1012C80060000020100804023E5149453E44427F18
:1012D8004040426151494622414949361814127F1B
:1012E800102F494949313E494949320301710907DB
:1012F8003649494936264949493E003636000000F4
:101308008068000000081422001414141414002229
:1013180014080002015109063E415D555E7C121118
:10132800127C7F494949363E414141227F41412251
:101338001C7F494949417F090909013E4149493A08
:101348007F0808087F41417F41412040413F017F9C
:10135800081422417F404040407F020C027F7F04F6
:1013680008107F3E4141413E7F090909063E41413F
:10137800C1BE7F09192946264949493201017F0121
:10138800013F4040403F1F2040201F3F4038403F22
:10139800631408146307087008076151494543003E
:1013A8007F41410002040810200041417F000804E9
:1013B80002040840404040400006090906205454F1
:1013C80054787F4444443838444444283844444496
:1013D8007F385454541808FE09010218A4A4A478AC
:1013E8007F0404047800447D40000080847D00412F
:1013F8007F10284400417F40007C047C04787C04F2
:101408000404783844444438FC2424241818242438
:1014180024FC7C080404080854545420043F444025
:10142800203C4040403C1C2040201C3C4030403C7C
:1014380044281028441CA0A0A07C4464544C4408B0
:10144800083641410000FF00004141360808080401
:10145800081008FFFFFFFFFFFC7FFF1FF93FFE4F4B
:10146800F31FFC670700007007000070070000709A
:101478000700007007000070070000700700007088
:10148800F31FFC67F93FFE4FFC7FFF1F00000000C1
:101498000000000000000000000000000000000044
:1014A8000000000000000000000000000000000034
:1014B80000000000F01FFC07F83FFE0FFC7FFF1F35
:1014C8000000FF1F0100FE4F0380FC6707C001708A
:1014D80007C0017007C0017007C0017007C0017024
:1014E80007C0017007C00170F39F0060F93F00401A
:1014F800FC7F000000000000010000400380006045
:1015080007C0017007C0017007C0017007C00170F3
:1015180007C0017007C0017007C00170F39FFC6726
:10152800F93FFE4FFC7FFF1FFC7F0000F83F0000E3
:10153800F09F000000C0010000C0010000C00100D1
:1015480000C0010000C0010000C0010000C001008F
:10155800F09FFC07F83FFE0FFC7FFF1FFC7F000099
:10156800F93F0040F39F006007C0017007C0017099
:1015780007C0017007C0017007C0017007C0017083
:1015880007C001700380FC670100FE4F0000FF1FC9
:10159800FC7FFF1FF93FFE4FF39FFC6707C00170F8
:1015A80007C0017007C0017007C0017007C0017053
:1015B80007C0017007C001700380FC670100FE4F7F
:1015C8000000FF1FFC7F0000F93F0000F31F000030
:1015D80007000000070000000700000007000000E7
:1015E800070000000700000007000000F31FFC07C9
:1015F800F93FFE0FFC7FFF1FFC7FFF1FF93FFE4FE7
:10160800F39FFC6707C0017007C0017007C0017035
:1016180007C0017007C0017007C0017007C00170E2
:10162800F39FFC67F93FFE4FFC7FFF1FFC7F000024
:10163800F93F0040F39F006007C0017007C00170C8
:1016480007C0017007C0017007C0017007C00170B2
:1016580007C00170F39FFC67F93FFE4FFC7FFF1F37
:101668000000000000000080803008043AFA3901C8
:101678000131F8FA120418E08000000000000000B0
:101688000C3C7E7AF9FFFFCFC7CFFFFFFFFF9F8E8D
:101698008EFFFFFFFFFFCFCFFFFFFFFA7A7E3C08E8
:1016A800EEDFE1AC000000000102047F040201004B
:00000001FF
