:040000006F00B02DB0
:10000400000000000000000044030000440300005E
:100014000000000044030000000000000000000095
:10002400440300004403000000000000000000003E
:10003400440300000000000044030000000000002E
:1000440044030000440300004403000000000000D7
:100054004403000044030000440300004403000080
:100064004403000044030000440300004403000070
:100074004403000044030000440300004403000060
:100084004403000044030000440300004403000050
:100094004403000044030000440300004403000040
:1000A4004403000044030000440300004403000030
:1000B4004403000060040000440300004403000003
:1000C4004403000044030000440300004403000010
:0C00D4004403000044030000440300004B
:1000E000B7F700E09C4737F700E03E951C47898F43
:1000F000E3CE07FE828079714ECE5EC6B70910FF4F
:10010000B70B00F122D426D252CC56CA5AC862C4C8
:1001100066C206D64AD0AA84A14A37140140FD1B04
:10012000370C0003B70C0004FD19370B4000370AE9
:1001300030000327048093978401E18733777701A8
:1001400063DA0708336797012320E48003270480DC
:100150000945FD1A33773701336767012320E480AF
:10016000413703270480860493FAFA0F3377370167
:10017000336747012320E48093F4F40FE39B0AFAEA
:1001800003270480B70700F1FD177D8FB707000430
:100190005D8F2320E480832704800945B3F737016E
:1001A000B3E767012320F480253F83270480B25002
:1001B0009254B3F93701B3E9490123203481225421
:1001C0000259F249624AD24A424BB24B224C924CFB
:1001D000456182803367870185BF411122C437148E
:1001E000014083270480370700F17D17F98F370717
:1001F000000326C206C6D98FAA842320F4800945AD
:10020000C53583270480370710FF7D17F98F37071F
:100210003000D98F2320F4802244B24026859244B6
:100220004101D1BD411122C437140140032704808C
:10023000B70700F126C29384F7FF658FB707000365
:1002400006C65D8F2320E4800945593D03270480BD
:10025000B70710FFFD177D8FB70740005D8F232084
:10026000E4800945B53D8327048037070004B24088
:10027000E58FD98F2320F48022449244410182806B
:10028000011122CC2A841305000A06CE26CA4AC8C8
:100290004EC652C456C291371375F40FA93D593753
:1002A0001305100A1D3F37140140832704803707C8
:1002B00000F17D17F98F37070004D98F370910FF38
:1002C0002320F480A1498144130404807D19B70AD6
:1002D0004000370A30001C4009458604B3F7270167
:1002E000B3E757011CC0ED3B1C4493F4F40F93F7A4
:1002F000070499C393E414001C40FD1993F9F90F06
:10030000B3F72701B3E747011CC0E39609FC1C4083
:10031000370740000945B3F72701D98F1CC0C933FF
:100320001C4033F927013369490123202401DD3DB5
:10033000F24062444249B249224A924A2685D24456
:100340000561828001A01386B1808347060093F780
:10035000F70F95EF1387C1808347070093F7F70FD7
:100360009DC783470700B736024093F7F70F2394E2
:10037000F64283D7A642C207C183F19BC207C1835D
:100380002395F64285472300F6002300070082806C
:100390009387B18083C7070093F7F70FF5FB938727
:1003A000C18003C707009376F70F138716001377F2
:1003B000F70F2380E70083C7070013870183369771
:1003C0002300A70493F7F70F130700046393E700D4
:1003D0009DBF8280B73702401387818123A8E74001
:1003E00009472391E742239007421387418223AABA
:1003F000E7401387018323ACE740130700042386FB
:10040000E7403147A386E74049472393E7422395D6
:10041000E7422392074223940742A3840180A385E5
:100420000180A387018023870180A38601808280C9
:1004300003A841818147814513874181938681814A
:100440003306F8006395A70091C110C382808345ED
:1004500006003386F60085072300B6008545CDB734
:100460005D713ED0B73702404ACA86C696C49AC26A
:100470009EC022DE26DC2ADA2ED832D636D43AD2F4
:1004800042CE46CC4EC872C676C47AC27EC083C6FF
:10049000674003C777409387074013F9F60F898AAF
:1004A000638006181377F70F9376F70013060002A0
:1004B000137707036308C734930500036307B70482
:1004C000631B07146381063E09476396E61403C75E
:1004D0006700137707046300071403D787004207F8
:1004E0004183630A071203D7A702420741834D9B4A
:1004F000136787002395E70283D7870093F7F70FE9
:10050000A384F1802385018039A2138781818355DB
:100510006700938601812390B600834617001385F8
:100520002181034807002300D50093853181238072
:10053000050103C4050093878181938401811374AD
:10054000040693892181938631816314042603C7AD
:1005500009002D461377F70F6366E60A05660A075A
:10056000130686C332971843028703C7370009462C
:10057000630CC7048D466301D70685476314F708EB
:100580008567938787B623AAF180C94703D70400FC
:1005900093960701C1824207418363F4E7002390E9
:1005A000D40083D704001D472144C207C18363667A
:1005B000F70003D404001374F40F2285953D9307CC
:1005C000F00F631DF40C3DA885679387C7B723AA76
:1005D000F1809307B0045DBF83C62700856713874A
:1005E0004181938787B66381C60A6366D608D1EADC
:1005F000938707061CC31C431307F00F83C707002C
:10060000E396E7F8FD572380F9001307F00CB7379E
:1006100002402391E742B737024009472383E7406E
:100620009377490091C7B737024011472383E740CA
:1006300013791900630A0900713BB7370240A3819F
:1006400007407D572383E7407254B640A6421643C5
:100650008643E2545255C2553256A256125782571B
:100660007248E2485249C249324EA24E124F824F5E
:100670006161730020301146638BC6009387C70900
:1006800095BF93874706BDB793870708A5B793879C
:10069000870B8DB703C72700A386E18083D70400AB
:1006A000131704014183818FC207C1832390F40093
:1006B000B73702402390E7421307000C99BF03C7E6
:1006C000E1802380E70083D704000547C207C18388
:1006D0006374F7002390E40003D404001374F40F50
:1006E000F9BD03C727002387E1800547A387E18081
:1006F00075B72390070083D704000947C207C18359
:10070000C1BF03C706007D8BE30E07EE83C606005C
:100710000947FD8AE398E6EE83C747003737024072
:1007200013070740638FD70093062008E39CD7EC9C
:100730008357A702C207C18393F7C7FB93E727003C
:1007400009A88357A702C207C18393F737F7C207E7
:10075000C1832315F70299B703C706007D8BE30316
:1007600007EA83C606000947FD8AE39DE6E803C45D
:100770002700E31904E883C747003737024013070F
:100780000740638FD70093062008E39DD7E6835781
:10079000A702C207C18393F7C7FB93E7370055BF92
:1007A0008357A702C207C18393F737F793E7C700C0
:1007B0004DB783C6050093F60606E395C6E4834766
:1007C00005001306100293F7F70F638AC70013069C
:1007D00020026384C702E397D7E20144C1B5B7079B
:1007E000002093870700214523AAF180913183D708
:1007F00004002147C207C183E1BD034727002384CA
:10080000E180E1BF85C20947E397E6E0A385018067
:1008100003D7A70242074183719B136727002395E3
:10082000E702D5BB03C7218195461377F70F630C09
:10083000D70499466314D7069387018183D70700AD
:100840001D4713840181C207C183A1446366F70079
:100850008354040093F4F40F2685D93E8357040093
:10086000139704014183858FC207C1832310F400CD
:10087000B73702402390E74203D72742420741831C
:100880001347070479B303C7370083C6D1801377B2
:10089000070893F6F60F558FA381E700130720088A
:1008A0002391E7028DBB03C7318113770706631FCE
:1008B000C70483C6218193F6F60F639AE60283D6B6
:1008C00087003706002093F6F60F8147B688214847
:1008D000130606009385818113F7F80F6373D80020
:1008E000214713F5F70F6369E50023980180B737B7
:1008F00002401307000431BB3385F50003450500B2
:100900003307F60085072300A700F9B71307000493
:1009100041BF411122C49357450006C625472A848A
:10092000138507036374F700138577039534937772
:10093000F4002547138577036364F70013850703E5
:100940002244B2404101A9B4411122C406C62A84FE
:100950000345040011E52244B240294541010DBC84
:1009600005043D34F5B7B7170240984F797106D6A4
:1009700022D44AD026D24ECE52CC56CA5AC85EC6CF
:100980001367170198CFD84B856637140140558FF0
:10099000D8CB5C4C370701403739024093F707F05A
:1009A00093E747085CCC89471CD01C4F93F707F3AB
:1009B00093E7C70C1CCF23000940293C9307900202
:1009C000A30109402300F940FD572303F940930791
:1009D00010F8A300F9409D472301F9400967B7E7E4
:1009E00000E023A2E71083270480370710FF7D175C
:1009F000F98F37074000D98F2320F48083270480A4
:100A0000370700F17D17F98F37070004D98F2320AE
:100A1000F48093070002232AF48093070004232A1A
:100A2000F4800145EFF0DF859307A00A6305F50226
:100A30001305000AEFF06FFA0145EFF0CFEB130555
:100A4000A00AEFF04FEBEFF0EFFD37B50300130511
:100A50000598EFF0EFE83779DC02056BC15B856A3A
:100A6000056A130909C01305CBC6F93DC144EFF06F
:100A70009F8D338474030145693D93898AC613743D
:100A8000F40F2285793503C5090021E59309040196
:100A900093F9F90F2285EFF0AFFE05049D3D137425
:100AA000F40F13050002EFF0BF8EE31534FFFD14C1
:100AB0001305CAC793F4F40F413DEFF0DF88D5F872
:100AC0001305CAC75135EFF01F884A85EFF04FE193
:100AD00059BF8509EFF0DF8B7DB7856793876796F0
:100AE00097010020938101D2174100201301815109
:100AF0007D45731005BC13058008732005308D45B6
:100B000073904580130540004D8D731055307390E0
:100B10001734B7070020056793870700130707C836
:100B20009386818063E8D702938781801387018B46
:100B300063E8E702B7270240094798C3B7170240A6
:100B400023A2070037F700E0954614C3714798CFFA
:100B50007300203010431107910723AEC7FED9B7A9
:100B6000910723AE07FEE9B712010002000000085A
:100B7000C016DD27000101020301000009024B003D
:100B80000201008019080B0002020201040904009E
:100B900000010202010405240010010524010000E7
:100BA0000424020205240600010705810308000150
:100BB00009040100020A00000407050202400000C7
:100BC00007058202400000000403090418037700AF
:100BD0006100670069006D0069006E0061007400CB
:100BE0006F007200000000001A0343004800330049
:100BF000320058003000330035002D0055005300FE
:100C0000420000001803430048003300320058003F
:100C10003000330035004300440043000000000072
:100C200016034300440043002D005300650072008A
:100C3000690061006C000000F2060000020700007D
:100C40000406000058070000040600009406000097
:100C50006A05000004060000BE060000E20600006F
:100C60009C0600009C0600003A20000045455052BA
:100C70004F4D204865782044756D703A00000000A3
:080C800000C2010000000800A1
:00000001FF
