:040000006F00D06756
:10000400000000000000000036020000360200007C
:1000140000000000360200000000000000000000A4
:10002400360200003602000000000000000000005C
:10003400360200000000000036020000000000004C
:100044003602000036020000360200000000000004
:1000540036020000360200003602000036020000BC
:1000640036020000360200003602000036020000AC
:10007400360200003602000036020000360200009C
:10008400360200003602000036020000360200008C
:10009400360200003602000036020000360200007C
:1000A400360200003602000036020000360200006C
:1000B400360200003602000036020000360200005C
:1000C40036020000FE020000360200003602000084
:0C00D40036020000360200003602000078
:1000E000B7F700E09C4737F700E03E951C47898F43
:1000F000E3CE07FE828079714ECE5EC6B70910FF4F
:10010000B70B00F122D426D252CC56CA5AC862C4C8
:1001100066C206D64AD0AA84A14A37140140FD1B04
:10012000370C0003B70C0004FD19370B4000370AE9
:1001300030000327048093978401E18733777701A8
:1001400063DA0708336797012320E48003270480DC
:100150000945FD1A33773701336767012320E480AF
:10016000413703270480860493FAFA0F3377370167
:10017000336747012320E48093F4F40FE39B0AFAEA
:1001800003270480B70700F1FD177D8FB707000430
:100190005D8F2320E480832704800945B3F737016E
:1001A000B3E767012320F480253F83270480B25002
:1001B0009254B3F93701B3E9490123203481225421
:1001C0000259F249624AD24A424BB24B224C924CFB
:1001D000456182803367870185BF411122C437148E
:1001E000014003270480B70700F126C29384F7FF7C
:1001F000658FB707000306C65D8F2320E48009459D
:10020000C53503270480B70710FFFD177D8FB7079B
:1002100040005D8F2320E4800945D9358327048081
:1002200037070004B240E58FD98F2320F4802244A1
:1002300092444101828001A0B77702401307200A4F
:100240002396E7002397E70093874186A38407005E
:100250002385070023840700238A0700A38A070059
:1002600023A0070023A207001387C182238107026E
:10027000D8C7A3810702138741802382070298CB46
:100280000547238BE70023800702238DE700A38D1A
:10029000E700056713078738239EE700239FE700E1
:1002A0008280B777024003D70700118B21C303D7A1
:1002B000E70042074183136707012397E700B777F9
:1002C00002401307F0042391E7004205A3820700D0
:1002D00041812393A700A384070003C74700137736
:1002E000F70F136737002382E700828003D7C70028
:1002F00042074183136707012396E700C9B75D7181
:100300003ED0B77702403AD203C7970086C696C45C
:100310009AC29EC022DE26DC2ADA2ED832D636D405
:1003200042CE46CC4ACA72C876C67AC47EC2137719
:10033000070235CB03C7970085460D8B631BD70497
:1003400083D7A7009546C207C18363F4F60403D49C
:1003500001841389018493160401C1869384418624
:1003600063CE060E1D66618E9376F401631F061040
:100370008D476383F60E99476387F6106390E60E08
:100380002382D40283C72402850793F7F70F2381C2
:10039000F402377702408347970093F7F70F93E70C
:1003A0000702A304F700B777024003C7970062076C
:1003B0006187635D070403D7C70085464207418311
:1003C0003D9B420741832396E70003D7E70042079E
:1003D00041833D9B420741832397E7001307700742
:1003E0002391E70003C747001377C70F1367270060
:1003F0002382E70013874186A301D70203C7970032
:10040000136707F81377F70FA384E70037770240E5
:100410008347970093F7070491CB8347970093F79F
:10042000F70F93E70704A304F70039357254B64079
:10043000A64216438643E2545255C2553256A2563E
:10044000125782577248E2485249424EB24E224FEA
:10045000924F6161730020309D479CC01305005A84
:100460004131A381040203C76401935794009D8B1B
:10047000A6070D8B1A0793E71700D98F094523109C
:10048000F900053539B7A147C9BFE399E6FC0D4727
:1004900098C01357C4001D8B238AE40013576400CF
:1004A0000D8B238BE400938701840147714693866B
:1004B00001818507E304C7FA03C51700B385E60089
:1004C00005072380A500F5B7411122C43714014068
:1004D00083270480370700F17D17F98F3707000362
:1004E00006C6D98F2320F4800945DD3E832704808A
:1004F000370710FF7D17F98F37073000D98F23207A
:10050000F4802244B240130580074101EDB6411149
:1005100022C406C69D47014463E3A7002A84B707A7
:10052000002023800700B7070020A3808700693FD1
:100530000145D136130504FB1375F50F6D3E0145DA
:100540005D3E41454D3E2244B240410179B1011525
:100550000111420541814EC6B709002003C70900B9
:1005600022CC131425002A94420406CE26CA4AC877
:100570009307A00741809389090063FAE700B70752
:10058000002003C5170005051375F50F49372D3FEA
:10059000130500048D36930454000145C204056917
:1005A000993EC1801309C9F7A287CA97050403C5FC
:1005B0000700420441808136E39884FE393983C7BD
:1005C0000900F240624499072380F900D24442496D
:1005D000B24905618280AA8793F707061375F5076C
:1005E00091C3B5B7A947631AF500B707002003C543
:1005F000170005051375F50F19BFB5476317F5000B
:10060000B707002003C51700C5BF8280014863DC1F
:100610000500B305B040E205E185635605003305EA
:10062000A0401308D0029308000263580600330666
:10063000C0406206618693080003D1478146254E7B
:1006400063D3C70A8280BE86B377B50213F7F70F6C
:100650006370FE08130777033355B5020010137754
:10066000F70F3303D400938716002306E3FE93F7B6
:10067000F70F71F9630C0800130700036388E800A3
:10068000A2978906238607FF93F7F60F3E8763C478
:10069000C704630D0800930600036399D800141083
:1006A0008507369793F7F70F230607FF1384F7FFA5
:1006B00064001374F40F269403450400293FA287B5
:1006C0007D14E39BF4FEB250225492544561828023
:1006D0001307070351B714108507369793F7F70FE1
:1006E000230617FF65B7797106D622D426D2A9BF93
:1006F0001D7126DAA40022DC4ED652D456D25AD02E
:100700005ECE62CC06DE4AD82E84B2C4B6C6BAC863
:10071000BECAC2CCC6CE26C693095002130A000335
:10072000A54A294B930B3007130C300603450400F0
:1007300009EDF2506254D2544259B259225A925A97
:10074000025BF24B624C2561828063063501050431
:1007500059352689A1A883471400638C3701090401
:100760000147639647018347040005470504014696
:1007700039A813055002E13B834724000D04CDB78F
:10078000B30766030504B6973E968347F4FF938646
:1007900007FDE3F7DAFE19C33306C040639D770116
:1007A00013894400844003C5040019E1CA84BDBF15
:1007B00085041535CDBF6398870103C504001389EF
:1007C0004400113DE5B7B5D7130750076389E70229
:1007D00013074006638DE700130780076387E7026E
:1007E000130720068945638DE7007D149DB76206D7
:1007F000138944006186D9558840093D45BFA94504
:100800006206138944006186C5BFC145D5BFB717CD
:10081000014003A70780B70610FFFD167971758F99
:10082000B706400006D622D426D24AD04ECE52CCAD
:1008300056CA5AC85EC662C466C2558F23A0E780F6
:1008400003A70780B70600F1FD16758FB7060004F1
:10085000558F1386078023A0E780930700025CCAA8
:1008600037A52400930700045CCA130505F0EFF0D8
:100870003F87993901458564EFF0FF8701449384F0
:10088000C4152D49B387840003C507000504EFF0A4
:100890009F86E31924FF9132A1441309F00FFD1440
:1008A00093F4F40F6395240B8565938545F1130547
:1008B000605D3D3DB7170240984FB70602001367D1
:1008C000170198CFD84B856A558FD8CB3717014081
:1008D000832747C0B7060044A207A183D58F2322F0
:1008E000F7C0370701401C4FB7BB030093E7073041
:1008F0001CCF138701844207B777024041832398B6
:10090000E700797721072390E7007157A384E70078
:1009100093874186238007021389018413844186CB
:10092000938A4AF5138AC182138B0181834C040296
:1009300093FCFC0F63990C52FD1493F4F40F8DECAF
:1009400085659385C5F41305605D5D3301A026853B
:100950007D3E9D3E13050004EFF0EFF913040008FF
:100960007D1401451374F40FEFF0EFF875F8EFF014
:10097000DF862685693E25B713850B98EFF04FF685
:10098000B777024003D7C700420741831377E7F1E7
:10099000420741832396E70003D7C70042074183FC
:1009A000136707042396E70083D6C70003D7E70041
:1009B000C206420741831377E7F142074183239739
:1009C000E70003D7E700C1824207418313670704AA
:1009D0002397E70083D7E7000947858B99E313F74F
:1009E00016008357840185468507C207C183231CEF
:1009F000F4001C406393D7046318F7082305040030
:100A0000834794009546850793F7F70FA304F400F6
:100A10008347940093F7F70F63F1F602A3040400F1
:100A200089471CC0B776024083D70600C207C1833E
:100A3000ED9BC207C1832390F6001440854763FBFA
:100A4000D70249E7834784001547850793F7F70FD7
:100A50002304F4008347840093F7F70F637CF700C7
:100A60002304040023200400B7E700E03707020056
:100A700023A2E718032C04001C4025476360F70AF3
:100A80008A07D6979C4382878947A3040400631C86
:100A9000F7028347A4009546850793F7F70F2305D0
:100AA000F4008347A40093F7F70FE3F8F6F8230563
:100AB000040018C0B776024083D70600C207C1837E
:100AC00093E747008DBF2305040085BF230404007E
:100AD00055B7B7E700E03707020023A2E718EFF0A9
:100AE000AFF585471CC01DA858401C406308F7029D
:100AF00037770240930770072311F70083474700B9
:100B000093F7C70F93E727002302F700B7E700E04A
:100B1000A38807423707020023A2E710232284019B
:100B200031B58347340293F7F70FEDDBA3010402DD
:100B3000B7E700E0370702000328C400144823A2E7
:100B4000E718A30A0400B70800F0370300C0294ED5
:100B5000930520031946130540068347440193F784
:100B6000F70F63EAFC00B7E700E03707020023A2B3
:100B7000E710914785BF13972C00B307EB009C4308
:100B8000B3FE170163986E060347540193DE170105
:100B900093FEFE0F1377F70F3307C702B38EAE0233
:100BA00036972311D7010347540193DE870093FE44
:100BB000FE0F1377F70F3307C70293F7F707B38ECC
:100BC000AE0236972310D70103475401B387B7020B
:100BD0001377F70F3307C70236972312F7008347BF
:100BE0005401850793F7F70FA30AF400850C93FCD3
:100BF000FC0FA5B793FEF73FA98393F7F73FB38E9A
:100C0000CE034297B387B7022310D7012311F70011
:100C1000F1BF58401C40630BF70A8347A401834689
:100C200024020565130725009D8AA606D98E216733
:100C30001307F7E1F98E0347640193F6F6F313F611
:100C4000F70F0D8B1A07D98E03474401034854014F
:100C50009395C7011377F70F1378F80F3307074100
:100C60006350C7088357C4015147C207C183B3D734
:100C7000E7021307F5FFF98FA60703475401CD8F4D
:100C8000834544011377F70F329793F5F50F0D8FD6
:100C90007D170A075297035707001306200333579F
:100CA000C702370600031377F707518F370600FD99
:100CB000130606F8F18FD98F2311F900C183231091
:100CC000D9002312F9001945EFF0AFDD8347440244
:100CD00093F7F70FE38407E423020402954719B55D
:100CE0001307F6FF0A07529703570700A94737066D
:100CF00000033357F7021377F73F9317A700518F7D
:100D00005D8FB367B7004DBF8347340293F7F70F8A
:100D1000E38607E0A3010402A5471CC0231C0400CE
:100D2000F5BB85472300F4020347A4018347B401C0
:100D30001377F70F93F7F70F631CF7000357C401FE
:100D40008357E4014207C2074183C183E308F7DC0C
:100D50008347A401094593F7F70FA30DF4008357C8
:100D6000C401C207C183231FF40023000402834788
:100D70002402034764019D8BA6070D8B1A0793E796
:100D80007700D98F2310F900EFF0AFD1A94799BBB5
:100D90008347440103475401998F93F7F70F63EE9C
:100DA000470533075A019317270058443E97834756
:100DB00044010346540183562700918F93F7F70FA0
:100DC00063E44703035707005286938544F21305F3
:100DD000605D050A313A137AFA0F8347440193F7AD
:100DE000F70FE3F747FB01A0B307FA40B3876703A8
:100DF0001848BA9703D7E7FFC1BF834744010347A9
:100E00005401998F93F7F70F63ED47035844B307E5
:100E10005A018A07BA9783D62700834744010347BC
:100E20005401998F93F7F70F63E647035844B307CC
:100E30005A018A07BA9703D727005286930589F388
:100E400079B7B307FA40B38767031848BA9783D6D0
:100E5000A7FFE1B7B307FA40B38767031848BA970B
:100E600003D7C7FFD9BF0145B70A0040EFF02FEA0B
:100E7000054A0569194BFD1A856485B7856793870F
:100E8000E780970100209381E1971741002013012B
:100E900061177D45731005BC13058008732005306C
:100EA0008D4573904580130540004D8D731055306E
:100EB00073901734B70700200567B70600209387A3
:100EC0000700130787169386060063EAD702B70761
:100ED0000020938707001387C18863E8E702B727DC
:100EE0000240094798C3B717024023A2070037F70B
:100EF00000E0954614C3714798CF7300203010432B
:100F00001107910723AEC7FEC9B7910723AE07FEAD
:100F1000E9B70000436F6E6E656374696E672E2ECD
:100F20002E00000020282564292536646D562025D2
:100F300035646D4120000000205B25645D2536642A
:100F40006D562D2535646D56200000004641494CF4
:100F500045440000D20A00001C0B0000E80A000013
:100F6000220B0000120C00001C0B00001C0B0000E8
:100F70001C0B0000080D0000220D00000000000006
:100F80000000005F00000007000700147F147F14BA
:100F9000242A7F2A122313086462364955225000FE
:100FA00004030000001C2241000041221C00140820
:100FB0003E081408083E0808008060000008080881
:100FC0000808006060000020100804023E514945F6
:100FD0003E44427F404042615149462241494936A0
:100FE0001814127F102F494949313E4949493203AB
:100FF000017109073649494936264949493E0036B3
:101000003600000080680000000814220014141448
:101010001414002214080002015109063E415D55D6
:101020005E7C1211127C7F494949363E4141412282
:101030007F4141221C7F494949417F090909013EFD
:101040004149493A7F0808087F41417F414120409A
:10105000413F017F081422417F404040407F020C05
:10106000027F7F0408107F3E4141413E7F0909090C
:10107000063E4141C1BE7F091929462649494932E8
:1010800001017F01013F4040403F1F2040201F3FA2
:101090004038403F63140814630708700807615123
:1010A000494543007F4141000204081020004141AE
:1010B0007F0008040204084040404040000609093F
:1010C0000620545454787F444444383844444428D7
:1010D000384444447F385454541808FE0901021817
:1010E000A4A4A4787F0404047800447D4000008018
:1010F000847D00417F10284400417F40007C047CB7
:1011000004787C040404783844444438FC242424BF
:101110001818242424FC7C0804040808545454207F
:10112000043F4440203C4040403C1C2040201C3CAC
:101130004030403C44281028441CA0A0A07C4464BB
:10114000544C4408083641410000FF00004141363C
:1011500008080804081008FFFFFFFFFFA83F8D14D0
:081160002000DA12A1C8AF0063
:00000001FF
