:040000006F00E02E7F
:0400040000000000F8
:10000800B7F700E09C4737F700E03E951C47898F1B
:10001800E3CE07FE828079714AD052CC7D79457A49
:1000280026D24ECE56CA5AC85EC606D622D4AA844E
:10003800A149B71A01407D1A0D6B916B1309F90F8D
:1000480093978401E18713870A8063D807085C4384
:10005800B3F74701B3E777015CC383A74A80094533
:10006800FD19B3F7270193E7074023A2FA80493F18
:1000780083A74A80860493F9F90FB3F7270193E71A
:10008800073023A2FA8093F4F40FE39B09FA83A7BD
:100098004A8045777D17F98F1167D98F23A2FA8097
:1000A80083A74A800945B3F7270193E7074023A2AE
:1000B800FA80B93783A74A80B250225433F927010E
:1000C8001369093023A22A8192540259F249624ADB
:1000D800D24A424BB24B456182805C43B3F7470139
:1000E800B3E7670195BF011122CC371401400327FC
:1000F8004480C57726CA9384F7FF56C2B377970022
:100108008D6A06CE4AC84EC652C4B3E757012A8A3A
:100118002322F4800945AE89E53583264480FD779E
:100128001389F70FB3F6260193E606302322D4800D
:100138005285D5354E85C535032744800945658FD9
:10014800336757012322E480653D832744800945AE
:10015800B3F7270193E707402322F4805535832717
:1001680044801167F240E58FD98F2322F4806244DE
:10017800D2444249B249224A924A056182803717DD
:1001880002401C4F797122D44AD04ECE52CC06D6AA
:1001980026D256CA5AC85EC662C43724014093E7BD
:1001A80017201CCF13040440AD473CC8B7070040D4
:1001B800FD175CC41CC8B7070E0085071CC4B71719
:1001C800014003A74780FD769386F60F758F136766
:1001D800074023A2E78003A74780C576FD16758FE1
:1001E8009166558F23A2E7801307004023AAE78072
:1001F80005671307078023AAE780C5451305800410
:10020800B7090020CD353D4A9389090013094036C6
:10021800232A44031C443707400093E717001CC4F3
:100228001C44D98F1CC41C40898BF5DF6444939708
:100238000401B7044B00C183938404B5B3D4F4021A
:100248009147139C0401135C0C41635E0C009305F9
:10025800000413058006B30490407135139C040113
:10026800135C0C418D4701470D4B930BE006938AB5
:10027800F7FF93FAFA0F99E737356E011305056012
:10028800413379B713951A00B387A90083D60700BD
:100298008147B384E70093F4F40F6352DC02639A56
:1002A8006A03CA9783C50700850493F4F40F93E59E
:1002B800050813058006053D2687D6874DBFB3047C
:1002C800DC408507139C040193F7F70F135C0C417E
:1002D800C9B73385AB401375F50F8145E9DCCA977B
:1002E80083C50700C9BF9307601897010020938151
:1002F800E15017510020130161D07D45731005BCF2
:1003080013058008732005308D45739045801305CB
:1003180040004D8D7310553073901734B707002087
:1003280093870700130740379386818063E2D702DB
:10033800B7270240094798C3B717024023A207000E
:1003480037F700E0954614C3714798CF7300203003
:1003580010431107910723AEC7FEC9BF3F065B4F85
:0C036800666D7D077F6F777C395E7971D0
:0803740001000A006400E80327
:00000001FF
