:020000040800F2
:08000000002000200D010008A2
:1000080003003733DBB2092801D83030C3B280216E
:10001800024AD0690842FCD093627047004400400D
:1000280010B504000009FFF7EBFF0F202040FFF791
:10003800E7FF10BD0122F8B52B4B2020596B2B4D43
:100048000A435A63A0223021D2051468284F8C43F2
:10005800204310600420546884435460946821430A
:100068009160116A234C0C408021490021431162A0
:100078008022D96B92020A43DA638B229200EA60EB
:1000880009222A608022996BD2020A4380219A634E
:100098005A6D0905920F92070A435A653860BC6881
:1000A800200E260CFFF7BCFFF0B2FFF7B9FFA0B295
:1000B800000AFFF7B5FFE0B2FFF7B2FF8022EB6955
:1000C8001342FBD00A2380240020AB620A4A0B4B60
:1000D8000B496402013B002BE1D051609060166827
:1000E8002642FCD0F6E7C04600100240004400401B
:1000F80000500240FFF0FFFF10E000E0E9030000BD
:10010800FFF900001F488546154A164B16499A60A4
:10011800164A174B8B421FD30223164A11680B430A
:100128001360154B154ADA608022196852040A4395
:100138001A608022920419681142FCD002223821E8
:100148009A609A680A40102AFBD105210C4A11606E
:100158002F225A63FFF76EFF01CA01C3DAE7C046D0
:100168000000000800ED00E00000002098010008F1
:100178000000002000200240001002400208003069
:0801880010E000E0002000205F
:04019000F8B5C046B8
:04019400F8B5C046B4
:040000050800010DE1
:00000001FF
