:040000006F00502A13
:1000040000000000000000001403000014030000BE
:1000140000000000140300000000000000000000C5
:10002400140300001403000000000000000000009E
:10003400140300000000000014030000000000008E
:100044001403000014030000140300000000000067
:100054001403000014030000140300001403000040
:100064001403000014030000140300001403000030
:100074001403000014030000140300001403000020
:100084001403000014030000140300001403000010
:100094001403000014030000140300001403000000
:1000A40014030000140300001403000014030000F0
:1000B40014030000300400001403000014030000C3
:1000C40014030000140300001403000014030000D0
:0C00D400140300001403000014030000DB
:1000E000B7F700E09C4737F700E03E951C47898F43
:1000F000E3CE07FE828079714AD052CC7D79457A71
:1001000026D24ECE56CA5AC85EC606D622D4AA8475
:10011000A149B71A01407D1A0D6B916B1309F90FB4
:1001200093978401E18713870A8063D807085C43AB
:10013000B3F74701B3E777015CC383A74A8009455A
:10014000FD19B3F7270193E7074023A2FA80493F3F
:1001500083A74A80860493F9F90FB3F7270193E741
:10016000073023A2FA8093F4F40FE39B09FA83A7E4
:100170004A8045777D17F98F1167D98F23A2FA80BE
:1001800083A74A800945B3F7270193E7074023A2D5
:10019000FA80B93783A74A80B250225433F9270135
:1001A0001369093023A22A8192540259F249624A02
:1001B000D24A424BB24B456182805C43B3F7470160
:1001C000B3E7670195BF411122C43714014083276B
:1001D000448045777D17F98F0D6726C206C6D98FF3
:1001E000AA842322F4800945E53D832744807D7756
:1001F0001307F70FF98F93E707302322F480224487
:10020000B240268592444101FDB5411122C4371404
:10021000014003274480C57726C29384F7FF658F8A
:100220008D6706C65D8F2322E4800945553D03276F
:100230004480FD779387F70F7D8F13670740232254
:10024000E4800945713D832744801167B240E58F02
:10025000D98F2322F48022449244410182800111EB
:1002600022CC2A841305000A06CE26CA4AC84EC6E6
:1002700052C4913F1375F40FBD3D413F3714014007
:100280001305100A89378327448045777D17F98F36
:100290001167D98F7D79056A13040480A1498144CF
:1002A0001309F90F130A0A805CC05C4009458604F3
:1002B000B3F7270193E707405CC01D351C4493F456
:1002C000F40FB3F7470199C393E414005C40FD19A0
:1002D00093F9F90FB3F7270193E707305CC0E39672
:1002E00009FC5C400945B3F7270193E707405CC070
:1002F000C53B5C4033F927011369093023222401EF
:100300002937F24062444249B249224A2685D24402
:100310000561828001A01386B1808347060093F7B0
:10032000F70F95EF1387C1808347070093F7F70F07
:100330009DC783470700B736024093F7F70F239412
:10034000F64283D7A642C207C183F19BC207C1838D
:100350002395F64285472300F6002300070082809C
:100360009387B18083C7070093F7F70FF5FB938757
:10037000C18003C707009376F70F13871600137722
:10038000F70F2380E70083C70700138701833697A1
:100390002300A70493F7F70F130700046393E70004
:1003A0009DBF8280B73702401387818123A8E74031
:1003B00009472391E742239007421387418223AAEA
:1003C000E7401387018323ACE7401307000423862B
:1003D000E7403147A386E74049472393E742239507
:1003E000E7422392074223940742A3840180A38516
:1003F0000180A387018023870180A38601808280FA
:1004000003A841818147814513874181938681817A
:100410003306F8006395A70091C110C3828083451D
:1004200006003386F60085072300B6008545CDB764
:100430005D713ED0B73702404ACA86C696C49AC29A
:100440009EC022DE26DC2ADA2ED832D636D43AD224
:1004500042CE46CC4EC872C676C47AC27EC083C62F
:10046000674003C777409387074013F9F60F898ADF
:10047000638006181377F70F9376F70013060002D0
:10048000137707036308C734930500036307B704B2
:10049000631B07146381063E09476396E61403C78E
:1004A0006700137707046300071403D78700420728
:1004B0004183630A071203D7A702420741834D9B7A
:1004C000136787002395E70283D7870093F7F70F19
:1004D000A384F1802385018039A21387818183550C
:1004E0006700938601812390B60083461700138529
:1004F0002181034807002300D500938531812380A3
:10050000050103C4050093878181938401811374DD
:10051000040693892181938631816314042603C7DD
:1005200009002D461377F70F6366E60A05660A078A
:10053000130646C032971843028703C7370009469F
:10054000630CC7048D466301D70685476314F7081B
:100550008567938747B323AAF180C94703D704006F
:1005600093960701C1824207418363F4E700239019
:10057000D40083D704001D472144C207C1836366AA
:10058000F70003D404001374F40F2285953D9307FC
:10059000F00F631DF40C3DA88567938787B423AAE9
:1005A000F1809307B0045DBF83C62700856713877A
:1005B0004181938747B36381C60A6366D608D1EA4F
:1005C000938707061CC31C431307F00F83C707005C
:1005D000E396E7F8FD572380F9001307F00CB737CF
:1005E00002402391E742B737024009472383E7409F
:1005F0009377490091C7B737024011472383E740FB
:1006000013791900630A0900713BB7370240A381CF
:1006100007407D572383E7407254B640A6421643F5
:100620008643E2545255C2553256A256125782574B
:100630007248E2485249C249324EA24E124F824F8E
:100640006161730020301146638BC6009387C70930
:1006500095BF93874706BDB793870708A5B79387CC
:10066000870B8DB703C72700A386E18083D70400DB
:10067000131704014183818FC207C1832390F400C3
:10068000B73702402390E7421307000C99BF03C716
:10069000E1802380E70083D704000547C207C183B8
:1006A0006374F7002390E40003D404001374F40F80
:1006B000F9BD03C727002387E1800547A387E180B1
:1006C00075B72390070083D704000947C207C18389
:1006D000C1BF03C706007D8BE30E07EE83C606008D
:1006E0000947FD8AE398E6EE83C7470037370240A3
:1006F00013070740638FD70093062008E39CD7ECCD
:100700008357A702C207C18393F7C7FB93E727006C
:1007100009A88357A702C207C18393F737F7C20717
:10072000C1832315F70299B703C706007D8BE30346
:1007300007EA83C606000947FD8AE39DE6E803C48D
:100740002700E31904E883C747003737024013073F
:100750000740638FD70093062008E39DD7E68357B1
:10076000A702C207C18393F7C7FB93E7370055BFC2
:100770008357A702C207C18393F737F793E7C700F0
:100780004DB783C6050093F60606E395C6E4834796
:1007900005001306100293F7F70F638AC7001306CC
:1007A00020026384C702E397D7E20144C1B5B707CB
:1007B000002093870700214523AAF180913183D738
:1007C00004002147C207C183E1BD034727002384FA
:1007D000E180E1BF85C20947E397E6E0A385018098
:1007E00003D7A70242074183719B13672700239514
:1007F000E702D5BB03C7218195461377F70F630C3A
:10080000D70499466314D7069387018183D70700DD
:100810001D4713840181C207C183A1446366F700A9
:100820008354040093F4F40F2685D93E83570400C3
:10083000139704014183858FC207C1832310F400FD
:10084000B73702402390E74203D72742420741834C
:100850001347070479B303C7370083C6D1801377E2
:10086000070893F6F60F558FA381E70013072008BA
:100870002391E7028DBB03C7318113770706631FFE
:10088000C70483C6218193F6F60F639AE60283D6E6
:1008900087003706002093F6F60F8147B688214877
:1008A000130606009385818113F7F80F6373D80050
:1008B000214713F5F70F6369E50023980180B737E7
:1008C00002401307000431BB3385F50003450500E2
:1008D0003307F60085072300A700F9B713070004C4
:1008E00041BF411122C49357450006C625472A84BB
:1008F000138507036374F7001385770395349377A3
:10090000F4002547138577036364F7001385070315
:100910002244B2404101A9B4411122C406C62A842E
:100920000345040011E52244B240294541010DBCB4
:1009300005043D34F5B7B7170240984F797106D6D4
:1009400022D426D24ECE4AD052CC56CA5AC85EC6FF
:100950001367170198CFD84B856437140140458F32
:10096000D8CB5C4C37070140B739024093F707F00A
:1009700093E747085CCC89471CD01C4F93840480C4
:1009800093F707F393E7C70C1CCF23800940193C6A
:1009900093079002A38109402380F940FD572383E8
:1009A000F940930710F8A380F9409D472381F9404F
:1009B0000967B7E700E023A2E71003274480FD762C
:1009C0009386F60F758F136707402322E480032771
:1009D0004480C576FD16758F9166558F2322E4807D
:1009E00013070040232AE480232A94800145EFF076
:1009F0001F879307A00A6305F5021305000AEFF0AD
:100A00008FFC0145EFF02FEF1305A00AEFF0AFEEDA
:100A1000EFF0AFFF37B5030013050598EFF04FEC8B
:100A20003779DC02056BC15B856A056A130909C069
:100A300013058BC3D535C144EFF0FF8D33847403A8
:100A40000145453593894AC31374F40F2285513DFE
:100A500003C5090021E59309040193F9F90F2285E3
:100A6000EFF0EFFF0504B53D1374F40F130500021A
:100A7000EFF01F8FE31534FFFD1413058AC493F4C0
:100A8000F40F593DEFF03F89D5F813058AC4693555
:100A9000EFF07F884A85EFF0AFE459BF8509EFF0AA
:100AA0003F8C7DB78567938767939701002093817B
:100AB00061D5174100201301E1547D45731005BC39
:100AC00013058008732005308D457390458013050C
:100AD00040004D8D7310553073901734B7070020C8
:100AE0000567938707001307C7C49386818063E86F
:100AF000D702938781801387018B63E8E702B727CA
:100B00000240094798C3B717024023A2070037F7EE
:100B100000E0954614C3714798CF7300203010430E
:100B20001107910723AEC7FED9B7910723AE07FE81
:100B3000E9B700001201000200000008C016DD271E
:100B4000000101020301000009024B0002010080C4
:100B500019080B000202020104090400000102024C
:100B600001040524001001052401000004240202F0
:100B7000052406000107058103080001090401009E
:100B8000020A000004070502024000000705820275
:100B900040000000040309041803770061006700A7
:100BA00069006D0069006E00610074006F007200E2
:100BB000000000001A0343004800330032005800D0
:100BC0003000330035002D00550053004200000076
:100BD000180343004800330032005800300033004F
:100BE00035004300440043000000000016034300AA
:100BF000440043002D00530065007200690061004D
:100C00006C000000C2060000D2060000D4050000FF
:100C100028070000D4050000640600003A05000023
:100C2000D40500008E060000B20600006C0600002D
:100C30006C0600003A200000454550524F4D2048B8
:0C0C400065782044756D703A00000000DB
:080C4C0000C2010000000800D5
:00000001FF
