:020000040800F2
:10000000000C0020DD000008A9010008A90100087B
:1000100000000000000000000000000000000000E0
:10002000000000000000000000000000A90100081E
:100030000000000000000000A9010008A90100085C
:10004000A9010008A9010008C1000008A9010008D1
:10005000A9010008A9010008A9010008A9010008D8
:10006000A9010008A9010008A9010008A9010008C8
:10007000A9010008A9010008A9010008A9010008B8
:10008000A9010008A9010008A9010008A9010008A8
:10009000A9010008A9010008A9010008A901000898
:1000A000A9010008A9010008A9010008A901000888
:1000B000A9010008A9010008A9010008A901000878
:1000C0000022044B5A600123034A51694B4053619B
:1000D0007047C04600280040000400503348854661
:1000E000224A234B23499A60234A244B8B4237D31D
:1000F0000021234B234A934235D3234B23495A688B
:100100000968120C12040A43802109020A430521DE
:100110005A601F4A03241160232201205A631D4A9A
:100120001168A14301431160D168A143D1605168B6
:10013000814351601A6E02431A66D96B164A0A430C
:10014000DA638022154952000C6822430A60822239
:100150001202DA650422124B1860124B1A60FEE795
:1001600001CA01C3C2E702C3C5E7C04600000008D8
:1001700000ED00E000000020B001000800000020B9
:10018000000000200000002000100240100FFF1FA0
:1001900010E000E000040050000400100070004077
:1001A0000028004000E100E0FEE70000000C002015
:04000005080000DD12
:00000001FF
