:020000040800F2
:10000000000C0020470100084501000845010008D8
:1000100000000000000000000000000000000000E0
:100020000000000000000000000000004501000882
:100030000000000000000000450100084501000824
:100040004501000845010008450100084501000878
:100050004501000845010008450100084501000868
:1000600045010008C10000084501000845010008DD
:100070004501000845010008450100084501000848
:100080004501000845010008450100084501000838
:100090004501000845010008450100084501000828
:1000A0004501000845010008450100084501000818
:1000B0004501000845010008450100084501000808
:1000C00001200B4B0B495A680A400B495A600A68D9
:1000D00082430A600F21094A516004225969114282
:1000E000FCD08022196892000A431A607047C0460B
:1000F00000540040FFF7FFFF0800024000000240EC
:10010000072210B57F24CB08134093402040044CB5
:1001100011402468E318185C01230841184010BD01
:1001200008080020CB08DB011818054B1A680723C4
:100130001940063B8B40115C0B4313547047C0467B
:1001400004000020FEE7BD488546A14AA14BA24914
:100150009A60A24AA24B8B4200D228E10021A14B17
:10016000A14A934200D225E10122A04BA04C1A6083
:100170006368A04A1B0C12681B04134380221202FE
:1001800013436360802322685B041343236080234E
:100190009B0422681A42FCD002233822A360A36881
:1001A0001340102BFBD180253F27934E0B3B336030
:1001B0001E336363914A924BED001360914B924A58
:1001C0001A60924B013D1A68ADB291005000484050
:1001D0001204000C1043820041005140090C02043B
:1001E000114319607F2339401840FFF79BFF002D12
:1001F000E7D12023626B0A2113430F226363844BF0
:10020000844F1868904301431960032158680143E3
:1002100059600521D86890430143FF20D960196ACD
:1002200081430800CC21014319628023E16B9B03C9
:100230000B43E36380231B023B6004233D607B6030
:10024000754BFB6110233B620F3B3B60A16B194375
:10025000A163216C0B43236409237049704CC86966
:100260000343CB616F4B8021A360922323606E4BCD
:1002700049025A606D4BF232FF321A6033236C4AE6
:10028000013B002B00D097E000F0DAF880237A6978
:100290001A42FCD000233B6112336360654B013B83
:1002A000E360012322681343236080237A681B01E3
:1002B00013437B60514B514A1B680493514B19689F
:1002C0001160049A1A6013008022D2009A1800214B
:1002D000197001339A42FAD101910291019B013BBD
:1002E000DBB20593029B05985E1EF6B23100FFF764
:1002F00007FF310005000198FFF702FF019B310065
:100300000133DBB22D1818000393FFF7F9FEEDB2AD
:1003100002992D180598FFF7F3FEEDB202992D18FA
:100320000398FFF7EDFE029BEDB25E1CF6B23100C2
:100330002D180598FFF7E4FEEDB231002D18019855
:10034000FFF7DEFEEDB231002D180398FFF7D8FE5F
:10035000EDB22D1802990198EDB2FFF7D1FE0128F8
:1003600006D1AB1E012B0FD802990198FFF7DAFED8
:1003700002990198FFF7C4FE002805D1032D03D18F
:1003800002990198FFF7CEFE402E1ED16B461B7BD3
:100390005BB2002B16DA00F053F880227B6913421F
:1003A000FBD040233B61244B6360049B77E701CA89
:1003B00001C3D0E602C3D4E67260B560306808427B
:1003C000FCD05DE70026039B0193029686E7C046BA
:1003D0000000000800ED00E0040000208404000894
:1003E00000000020040000200C0800200020024033
:1003F00000100240100FFF1F10E000E0080800206E
:100400000800002004000020080400200000002054
:1004100000140050005400401A8000000000014009
:1004200008000240105400400000024000E100E0DB
:100430007FBB00007004000801040000000C0020D5
:1004400002220A4B99691142FCD18022196852009C
:100450000A431A60012259691142FCD078221A61BC
:10046000763A59691142FCD09B69704700540040AC
:10047000A83F8D14200021007F22003FDA12A1C87E
:04048000AF000000C9
:04048400EEDFE1AC1A
:0400000508000147A7
:00000001FF
