:020000040800F2
:0800000000200020FD000008B3
:100008008022034BD9691142FCD098627047C046E0
:1000180000440040F8B50123314AF020516B314DBE
:100028000B435363A023DB0519680F27814308009E
:10003800A021014304201960596881435960302187
:1000480098680143C0209960D9688143080040211D
:100058000143D960196A24480840882149010143AD
:1000680019628023D16B9B020B43D3638B239B00C4
:10007800EB600D232B608023916B5B010B43936333
:100088002022EB691342FBD06B6ADBB20A2B24D027
:10009800164A1370F4E70134FFF7B2FF20780028FE
:1000A800F9D1124E33781A091000DCB237309F2B81
:1000B80001D8303210003C40FFF7A2FF2000373053
:1000C800092C00D80738FFF79BFF0A20FFF798FF95
:1000D8000123B2681343B360D2E7054CDEE7C0469C
:1000E8000010024000440040FF00FFFF00300240C3
:1000F800880100081F488546154A164B16499A601C
:10010800164A174B8B421FD30223164A11680B431A
:100118001360154B154ADA608022196852040A43A5
:100128001A608022920419681142FCD002223821F8
:100138009A609A680A40102AFBD105210C4A11607E
:100148002F225A63FFF766FF01CA01C3DAE7C046E8
:100158000000000800ED00E0000000208E0100080B
:100168000000002000200240001002400208003079
:0801780010E000E0002000206F
:04018000F8B5C046C8
:04018400F8B5C046C4
:060188004352433A20003F
:04000005080000FDF2
:00000001FF
