:040000006F00203B32
:0400040000000000F8
:100008009377F50703A5C180139745001377073841
:100018003A953E95034505009D893355B5400589B8
:10002800828093D735009E07AA9703A581809D8972
:100038003E958547B395B70083470500DD8D2300BE
:10004800B5008280B7F700E09C4737F700E03E959F
:100058001C47898FE3CE07FE828079714AD052CC43
:100068007D79457A26D24ECE56CA5AC85EC606D67D
:1000780022D4AA84A149B71A01407D1A0D6B916B4D
:100088001309F90F93978401E18713870A8063D8CE
:1000980007085C43B3F74701B3E777015CC383A75D
:1000A8004A800945FD19B3F7270193E7074023A2C2
:1000B800FA80493F83A74A80860493F9F90FB3F77A
:1000C800270193E7073023A2FA8093F4F40FE39B08
:1000D80009FA83A74A8045777D17F98F1167D98F69
:1000E80023A2FA8083A74A800945B3F7270193E73B
:1000F800074023A2FA80B93783A74A80B250225416
:1001080033F927011369093023A22A81925402592D
:10011800F249624AD24A424BB24B456182805C4303
:10012800B3F74701B3E7670195BF4111AA9526C206
:100138009394050122C406C62A84C180931704013A
:10014800C1836398F4043714014003274480C577BA
:100158009384F7FF658F8D675D8F2322E4800945BF
:10016800D53503274480FD779387F70F7D8F136775
:1001780007402322E4800945F1358327448011672D
:10018800B240E58FD98F2322F48022449244410162
:100198008280034504000504C9354DB7411122C4C6
:1001A800371401408327448045777D17F98F0D6701
:1001B80006C6D98F2322F4800945693583274480F0
:1001C8007D771307F70FF98F93E707302322F48021
:1001D8002244B24013058007410141B55D71938700
:1001E80001814EDE23A6F18052DC938701C1A2C4AF
:1001F800A6C223A4F18086C6CAC056DA5AD85ED6EB
:1002080062D466D26AD06ECE130400409389C1804E
:10021800138A8180B7040020138704001C437D14CF
:1002280042049396270013951700358DC207418124
:100238005D8D9317250093151500BD8DC18193170A
:100248000501DD8D0CC31375F50793F5F5034180A2
:10025800C93B79F0B717014003A74780FD7693861D
:10026800F60F758F1367074023A2E78003A747801F
:10027800C576FD16758F9166558F23A2E780130703
:10028800004023AAE78005671307078037A52400E5
:1002980023AAE780130505F0753309370145753B37
:1002A800C5451305C0435135054B8D4C130C00044F
:1002B80083270A0083AA090023A0F90023205A01F2
:1002C80081473387FA00230007008507130700409A
:1002D800E399E7FE814401499387F4FF93FBF70F05
:1002E8009305F9FF93F5F50F5E852EC6113BB245D0
:1002F8002A8426853133B245138D1400137DFD0FF2
:100308002A946A85F5391374F40F2A94CA855E8590
:10031800C5391374F40F2A94CA856A85930D190098
:10032800C53193FDFD0F1374F40F2A94EE855E8595
:10033800C1391374F40F2A94EE852685D1311374CC
:10034800F40F2A94EE856A8565391374F40F2A949C
:10035800CA8526851374F40F6531631B65019307FD
:10036800E4FF93F7F70F636EFB00CA8526855539BE
:10037800CA852685713111E563159401CA852685DC
:100388004D3163928D0393178D01E18763DB07007D
:10039800313513050004D13193050040568571337A
:1003A80001BFEA84814D6E8905BF9307401E9701FE
:1003B80000209381A14417510020130121C47D45D9
:1003C800731005BC13058008732005308D457390A4
:1003D8004580130540004D8D7310553073901734C8
:1003E800B70700209387070013070045938681808D
:1003F80063E8D702938781801387010163E8E702E6
:10040800B7270240094798C3B717024023A207003D
:1004180037F700E0954614C3714798CF7300203032
:1004280010431107910723AEC7FED9B7910723AE32
:1004380007FEE9B7A83F8D14200021007F22003F66
:08044800DA12A1C8AF000000A8
:08045000EEDFE1AC000000004A
:00000001FF
