:020000040800F2
:10000000000C00203F0700083D0700083D070008DE
:1000100000000000000000000000000000000000E0
:100020000000000000000000000000003D07000884
:1000300000000000000000003D0700083D07000828
:100040003D0700083D0700083D0700083D07000880
:100050003D0700083D0700083D0700083D07000870
:100060003D070008AD0200083D0700083D070008F5
:100070003D0700083D0700083D0700083D07000850
:100080003D0700083D0700083D0700083D07000840
:100090003D0700083D0700083D0700083D07000830
:1000A0003D0700083D0700083D0700083D07000820
:1000B0003D0700083D0700083D0700083D07000810
:1000C0000448054B10B5834203D0044B002B00D0ED
:1000D000984710BD08000020080000200000000024
:1000E00006480749091A8B10C90FC91810B54910DD
:1000F00003D0044B002B00D0984710BD080000200F
:10010000080000200000000010B5074C2378002BE9
:1001100009D1FFF7D5FF054B002B02D0044800E0C2
:1001200000BF0123237010BD080000200000000064
:1001300024100008054B10B5002B03D004490548D6
:1001400000E000BFFFF7CCFF10BDC046000000007C
:100150000C00002024100008002243088B4274D3B6
:1001600003098B425FD3030A8B4244D3030B8B42B8
:1001700028D3030C8B420DD3FF22090212BA030CC1
:100180008B4202D31212090265D0030B8B4219D3A2
:1001900000E0090AC30B8B4201D3CB03C01A5241C2
:1001A000830B8B4201D38B03C01A5241430B8B420A
:1001B00001D34B03C01A5241030B8B4201D30B03F3
:1001C000C01A5241C30A8B4201D3CB02C01A52411A
:1001D000830A8B4201D38B02C01A5241430A8B42DD
:1001E00001D34B02C01A5241030A8B4201D30B02C6
:1001F000C01A5241CDD2C3098B4201D3CB01C01AE0
:10020000524183098B4201D38B01C01A52414309E9
:100210008B4201D34B01C01A524103098B4201D3D7
:100220000B01C01A5241C3088B4201D3CB00C01A44
:10023000524183088B4201D38B00C01A52414308BC
:100240008B4201D34B00C01A5241411A00D20146E1
:10025000524110467047FFE701B5002000F006F854
:1002600002BDC0460029F7D076E770477047C04608
:100270008022034B59691142FCD018617047C04677
:1002800000540040074B1B78002B09D10422064B79
:1002900059691142FCD08022196892000A431A6001
:1002A0007047C046240000200054004001200B4B42
:1002B0000B495A680A400B495A600A6882430A602F
:1002C0000F21094A5160042259691142FCD0802251
:1002D000196892000A431A607047C04600540040F3
:1002E000FFF7FFFF080002400000024030B5802405
:1002F0000021064B064A6402013800D230BD5A6024
:1003000099601D682542FCD0F6E7C04610E000E089
:10031000BF5D0000074A10B5136801009C0058003B
:1003200060401B04000C18431060FFF79BFF08009F
:1003300010BDC0460400002000238022180010B524
:10034000034CD2001919043308609342FAD110BD4E
:100350002800002083B210B504007F2B13D889B287
:100360003F2910D8012A0FD0022A18D0002A0AD11A
:100370000723C808013219408A40C00100190E4CF9
:10038000235C9343235410BD0723C80819408A40B7
:10039000C0010019084C235C1A432254F3E70723D9
:1003A000C8081940063B8B40034AC0010019115C84
:1003B0004B401354E7E7C04628000020F7B506007D
:1003C0000D001F000C000192019BEB189C4200DB0A
:1003D000F7BD21003A0030000134FFF7BBFF24B223
:1003E000F2E7F7B5050004001E0008AB1F78009186
:1003F0000192019BEB189C4200DBF7BD20003B0003
:10040000320000990134FFF7D9FF24B2F1E7F0B5CB
:100410000C0087B00290039104920593039B059A08
:100420009B189C4223DA0C9B1E00009305E02500DC
:100430003778E31DAB4210DA0136009A029B0C9626
:100440009B1A9B191BB2049A0193029B9B18019A59
:100450009A42ECDB083424B2E0E7012229003A405A
:1004600001980135FFF776FF2DB27F08E1E707B06D
:10047000F0BD0000F02203001201000110400F2225
:100480001340184383001843044B1840430018439B
:10049000034B1840430018437047C04633330000F5
:1004A00055550000F0B58DB00790079B1A78002ACB
:1004B00001D10DB0F0BD079B60210133079360208F
:1004C0007F2311401340024200D116E1203B9BB232
:1004D0009A00D3189BB20393934B1E780623049380
:1004E000082E40D8914B0021595E039B5A1C92B2B2
:1004F00003928F4AD45C049B012B00D100248D4BC6
:100500001B78002B01D0E443E4B2082305930122B9
:10051000894B22400027DF5FB3B28DB20693012ED4
:1005200017D1013538002DB2FFF714FF2900059BC4
:100530006408013BDBB20593002BE8D1B3B2DF19AD
:100540007D4B1F80049B013BDBB20493002BC9D180
:10055000ABE733B2009238001A00FFF742FFB3B2A4
:100560005D1929B2E3E7092E00D08DE0039B039AC1
:1005700001339BB208936E4B9D5CA8B2FFF77AFFE4
:100580000523040007000593089B5A1C92B20892A9
:10059000674AD35C0493059B012B01D1002304938C
:1005A0006B46188AFFF766FF06260E210A90039015
:1005B0002B00049A03203341324103400240022BB6
:1005C0000FD1012A1BD110004B1E98408A40039B7B
:1005D00004431A43A4B293B210E00A9C039F049D03
:1005E000D2E7012B0BD1022A09D118004A1E9340F1
:1005F0008840039A04431343A4B29BB20393023985
:10060000013E0029D4D1494B00229B5E0693494B01
:100610001B780993002B03D0FF43E443BFB2A4B27D
:10062000069B069E10331BB20B930122424B3100F6
:1006300000255D5F3A402800FFF78CFE0122ADB235
:10064000681C3100224000B2FFF784FE01360B9B8C
:100650007F08640836B2BFB2A4B29E42E5D1059FBE
:10066000354BA81C00B2013F1880FBB20593002B4C
:10067000B3D1099B0222009306991023FFF7B1FE24
:100680002D4B04351D8010E7039B5A1C92B2039238
:10069000274AD45C049B012B00D10024254B1B78F6
:1006A000002B01D0E443E4B2204B00255D5F2B001A
:1006B00010331BB20693204BAEB20027DF5F01233D
:1006C00023401A0029003800B51C01360593FFF7B6
:1006D00041FE3800059A31B2FFF73CFE069B2DB271
:1006E00064089D42E7D17B1C049F134A013F13809D
:1006F000FBB20493002BC7D1D7E60A2B0DD10E4BCA
:100700001980094B09491A780B88082A03D8D200A6
:100710009B180B80C9E61033FBE70D2B00D0C4E615
:10072000054B1980C1E6C046000000202C040020C3
:1007300098100008280400202A040020FEE71D4825
:100740008546124A124B13499A60134A134B8B4247
:1007500016D30021124B134A934214D3124A134961
:10076000536809681B0C1B040B43802109020B43CF
:10077000052153600E4B19602323536300F010F9D9
:1007800001CA01C3E3E702C3E6E7C0460000000870
:1007900000ED00E008000020DC140008000000204C
:1007A000080000203004002000100240100FFF1F3E
:1007B00010E000E0000C0020F0B504000D001F0068
:1007C000060085B00292029BE31801939E4218DB5B
:1007D00026007B1E5B191BB20393019B9E4218DB14
:1007E0003A00290020000123FFF7E8FD02980123C9
:1007F000013800193A00290000B2FFF7DFFD05B00B
:10080000F0BD3000012229000136FFF7A3FD36B20A
:10081000D9E73000012203990136FFF79BFD36B27C
:10082000DBE7F0B589B06B46039201229B89069005
:10083000D21A5B005B421BB20493002312B20791F1
:100840000192039A934201DD09B0F0BD6A46148B10
:100850009FB2E3191BB20593938B9289E51B9E18F7
:1008600036B231002DB20598009201220293FFF7B3
:1008700071FD310028000122FFF76CFD029B009AF8
:1008800005989E1A36B231000122FFF763FD310050
:1008900028000122FFF75EFD009B0122E518029B64
:1008A0002DB2DE1936B231002800FFF753FD009B50
:1008B0003100E41A24B201222000FFF74BFD029B15
:1008C0000122DE1B36B231002800FFF743FD012272
:1008D00031002000FFF73EFD019B002B0BDB009A4F
:1008E000013A13B20393049B02331AB20492019AA1
:1008F0009B181BB20193019A7B0003339B181BB218
:1009000001937B1C1BB29CE702220C4B996911429C
:10091000FCD1A0221968D2000A431A600122596949
:100920001142FCD078221A61763A59691142FCD002
:1009300000229B69024B1A707047C0460054004069
:100940002400002010B5FFF7DFFF0020FFF790FC28
:10095000B020FFF78DFC0020FFF78AFC1020FFF786
:1009600087FCFFF78FFCFFF7CFFF4020FFF780FCED
:100970008022084BD2005A60074ADA6001221968C7
:100980000A431A608023054A1B0151680B435360D8
:1009900010BDC0460800024028000020005400405E
:1009A0002022C54B0A20596BF0B50A430F215A6328
:1009B000C24A0025146801278C432043106003209D
:1009C0005468BF4E204350600520D4688BB08C43E0
:1009D0002043FF24D060106AA0430400CC202043B1
:1009E00010628022D86B92030243DA638022B54CF6
:1009F00012022260042225606260B34AE261102282
:100A0000226227609A6B3A439A631A6C3A431A64DB
:100A10000923AE4AD0690343D361AD4B8022B36052
:100A200092233360AB4B92005960AB4B32201A607B
:100A3000FFF75CFCFFF768FF2800FFF719FC1123A4
:100A40007360A64BF36033683B4333608023626876
:100A50001B0113436360FFF715FCFFF76DFCC8240F
:100A60008020FFF757FC05004020FFF753FC013CB6
:100A700001B2012228B2A4B2FFF76CFC002CEFD126
:100A8000203422B2013C32216420A4B2FFF7C9FE17
:100A9000002CF6D10A272500914B04932B00143328
:100AA0001BB20593049B3E005B5D02933B00083341
:100AB0001BB20393039B9E4200D0F5E10135202D2C
:100AC00000D0ECE1049B203304931A2E00D0E9E11E
:100AD000FFF738FFFA200027C000FFF707FCFFF7F9
:100AE0002BFC01227F4B804E1F80804B80481A7068
:100AF0003780FFF7D7FC7B4B7C4A1F8004237D485F
:100B000013703580FFF7CEFC764B784A1F800A239E
:100B10007948143D13703580FFF7C4FC4023714AB7
:100B200076481380714A373B13703580FFF7BAFC63
:100B3000FFF708FFFA20C000FFF7D8FBFFF7E4FE3D
:100B40000020FFF795FBD320FFF792FBE0B20134C2
:100B5000FFF78EFBA4B2FFF795FB1920FFF7C6FB4A
:100B6000412CEBD1FA2000278000FFF7BFFBFFF7F5
:100B7000E3FB5C4B62481F803780FFF793FC614BBF
:100B800007220093390010237920FFF740FC0A2345
:100B9000544A5B4213801E3333805B4B3C3C0293D0
:100BA000013CE4B2FF2C00D08CE14E4BA13C1C80F8
:100BB0002423012555483380FFF774FC544B200053
:100BC0000722142100930823FFF721FC0723182292
:100BD00014216820FFF7F0FD142107230C22682060
:100BE0000095FFF7FEFB00233E4A263C13803F4B57
:100BF000484834801D70FFF755FC210007234E2222
:100C00003220FFF7D9FD043C012320B205340093C4
:100C100004223A210233A4B2FFF7E3FB662CF3D19E
:100C2000FFF790FEFA20C000FFF760FBFFF784FBA0
:100C30003C235B421D2705935A33049300237F42D4
:100C40009BB202932023029A9D1A6A46128A2DB201
:100C500054009E1A013436B224B201233100280018
:100C600003922200FFF7AAFB029822002030012302
:100C7000310000B2FFF7A2FB029B29005C000134A7
:100C800024B2012322003000FFF798FB03980123D0
:100C900020302200290000B2FFF790FB002F3BDB41
:100CA000039B013B1BB20493059B02331AB2DF196D
:100CB00005923FB230E0C0460010024000140050E0
:100CC0000800024000540040148000000000014071
:100CD000105400400000024000E100E080140008D1
:100CE000911400082A0400202C0400200000002099
:100CF0003C100008481000084D100008581000086B
:100D00005E10000880100008852A000067100008A7
:100D1000791000086B100008029B01339AB2520050
:100D20000132D719049A1BB23FB29A4288DA1E22C6
:100D300020216020FFF775FDFFF704FEFA20C000B8
:100D4000FFF7D4FAFFF7E0FD0020FFF791FAA720A4
:100D5000FFF78EFAFFF796FAFA20C000FFF7C6FAFF
:100D6000FFF7D2FD0020FFF783FAA620FFF780FAF5
:100D7000FFF788FAFA20C000FFF7B8FAFFF7C4FDC2
:100D80000020FFF775FAA020FFF772FAC820FFF7DE
:100D90006FFAFFF777FAFA20C000FFF7A7FAFFF71C
:100DA000B3FD0020FFF764FAA120FFF761FAC82025
:100DB000FFF75EFAFFF766FAFFF7BEFA012300219C
:100DC00000933B331A000800FFF70BFB3C23002184
:100DD0001A004020FFF7F0FCFFF7B4FDFA20C00036
:100DE000FFF784FAFFF7A8FAC82303938020FFF7E0
:100DF00091FA05B24020FFF78DFA04B28020FFF788
:100E000089FA03B240200293FFF784FA029B07B2EB
:100E10005B1BDA179B1853401AB208920122069204
:100E2000029A954202DB0122524206923A1BD117E6
:100E300052184A4092B20492524212B209920122CE
:100E40000792BC4201DB023A0792049A9BB29E1AB7
:100E5000059336B2012221002800FFF77BFA029B9E
:100E6000AB4201D1A74269D0B2B2530009991BB27B
:100E7000994208DC0299A94260D00499521A16B22C
:100E8000069AAD182DB2089A9A42E3DBA74255D0D4
:100E9000059B9E19079B36B2E41824B2DAE7039744
:100EA000039FFBE50025FBE70122029B134203D0D1
:100EB00031000598FFF74EFA029B01365B0836B207
:100EC0000293F7E5504B6200D15A0022029B9942EF
:100ED0002CD9022C01D10137FFB24C4B00255D5FAC
:100EE000002F0FD0110153015B1892009BB29B1889
:100EF000474A9BB29B1800930D22202314212800FF
:100F0000FFF785FAADB22800404B103000B21880D0
:100F1000022C00D044E60123009302331A00302152
:100F2000FFF75FFA394B16351D8039E6029B013217
:100F30005B1A9BB20127D2B20293C7E7FFF702FD0B
:100F4000039B013B9BB20393002B00D04EE7FFF7BE
:100F5000F3F9C82440278020FFF7DCF9029038001D
:100F6000FFF7D8F905003800FFF7D4F90600202074
:100F7000FFF7D0F903B26846013C29B232B2082526
:100F8000405FA4B2FFF718FCFFF7DCFC002CE2D1B5
:100F9000FFF7D2F9C8348020FFF7BCF905004020E4
:100FA000FFF7B8F906001020FFF7B4F9013C02B2D0
:100FB00031B228B2A4B2FFF734FCFFF7C3FC002C17
:100FC000E9D1C8348020FFF7A5F905004020FFF7DC
:100FD000A1F90E4B013C1D800E4BA4B218800220DB
:100FE000FFF798F90C4D28700320FFF793F90B4B8E
:100FF000013018700A48FFF755FAFFF7A3FC002CE0
:10100000E0D12C7029E5C0468E1000082A0400208B
:10101000781200082C040020280400200000002082
:1010200073100008F8B5C046F8BC08BC9E4670476F
:0C103000F8B5C046F8BC08BC9E467047EE
:10103C0048656C6C6F20576F726C64005445535448
:10104C0000313233343536373839300031323334BD
:10105C003500464D20526164696F004D487A005648
:10106C006F6C756D653A0048656C6C6F000102041D
:10107C007F0402017C0407010784DC73464C464361
:10108C00417C01000A006400E80310270000000006
:10109C000000005F00000007000700147F147F149D
:1010AC00242A7F2A122313086462364955225000E1
:1010BC0004030000001C2241000041221C00140803
:1010CC003E081408083E0808008060000008080864
:1010DC000808006060000020100804023E514945D9
:1010EC003E44427F40404261514946224149493683
:1010FC001814127F102F494949313E49494932038E
:10110C00017109073649494936264949493E003695
:10111C00360000008068000000081422001414142B
:10112C001414002214080002015109063E415D55B9
:10113C005E7C1211127C7F494949363E4141412265
:10114C007F4141221C7F494949417F090909013EE0
:10115C004149493A7F0808087F41417F414120407D
:10116C00413F017F081422417F404040407F020CE8
:10117C00027F7F0408107F3E4141413E7F090909EF
:10118C00063E4141C1BE7F091929462649494932CB
:10119C0001017F01013F4040403F1F2040201F3F85
:1011AC004038403F63140814630708700807615106
:1011BC00494543007F414100020408102000414191
:1011CC007F00080402040840404040400006090922
:1011DC000620545454787F444444383844444428BA
:1011EC00384444447F385454541808FE09010218FA
:1011FC00A4A4A4787F0404047800447D40000080FB
:10120C00847D00417F10284400417F40007C047C99
:10121C0004787C040404783844444438FC242424A2
:10122C001818242424FC7C08040408085454542062
:10123C00043F4440203C4040403C1C2040201C3C8F
:10124C004030403C44281028441CA0A0A07C44649E
:10125C00544C4408083641410000FF00004141361F
:10126C0008080804081008FFFFFFFFFFFCF9F3074C
:10127C00070707070707F3F9FC7F3F1F0000000073
:10128C000000001F3F7FFFFEFC000000000000007C
:10129C00FCFEFF1F4F6770707070707070674F1F8F
:1012AC0000000000000000000000F0F8FC0000004E
:1012BC00000000000000001F3F7F00000000000045
:1012CC0000000000FCFEFF00000000000000000019
:1012DC0000070F1F00010307070707070707F3F9AC
:1012EC00FC000080C0C0C0C0C0C0C09F3F7FFFFEDC
:1012FC00FC010101010101010000001F4F6770702A
:10130C0070707070706040000001030707070707DA
:10131C000707F3F9FC000080C0C0C0C0C0C0C09F6C
:10132C003F7F00000001010101010101FCFEFF00F3
:10133C00406070707070707070674F1FFCF8F00038
:10134C00000000000000F0F8FC7F3F9FC0C0C0C050
:10135C00C0C0C09F3F7F00000001010101010101DD
:10136C00FCFEFF00000000000000000000070F1F43
:10137C00FCF9F3070707070707070301007F3F9FE7
:10138C00C0C0C0C0C0C0C08000000000000101018E
:10139C0001010101FCFEFF00406070707070707004
:1013AC0070674F1FFCF9F3070707070707070301CF
:1013BC00007F3F9FC0C0C0C0C0C0C0800000FFFE07
:1013CC00FC01010101010101FCFEFF1F4F67707060
:1013DC007070707070674F1FFCF9F30707070707F1
:1013EC000707F3F9FC7F3F1F000000000000001FFF
:1013FC003F7F00000000000000000000FCFEFF002A
:10140C00000000000000000000070F1FFCF9F307AC
:10141C00070707070707F3F9FC7F3F9FC0C0C0C051
:10142C00C0C0C09F3F7FFFFEFC0101010101010113
:10143C00FCFEFF1F4F6770707070707070674F1FED
:10144C00FCF9F307070707070707F3F9FC7F3F9F32
:10145C00C0C0C0C0C0C0C09F3F7F000000010101E0
:10146C0001010101FCFEFF00406070707070707033
:10147C0070674F1FA83F8D14200021007F22003F72
:10148C00DA12A1C8AF000000000000008080300814
:10149C00043AFA39010131F8FA120418E08000001C
:1014AC0000000000000C3C7E7AF9FFFFCFC7CFFF95
:1014BC00FFFFFF9F8E8EFFFFFFFFFFCFCFFFFFFFD2
:0814CC00FA7A7E3C08000000E2
:0414D40035010008D6
:0414D80009010008FE
:0814DC0001000000EEDFE1ACAD
:040000050800073FA9
:00000001FF
