:020000040800F2
:08000000000C002009000008BB
:1000080037488546284A294B29499A60294A2A4B64
:100018008B423FD3294A2A49536809681B0C1B04A1
:100028000B43802109020B43536005230325012458
:10003800244803601E335363234B1968A9432143A3
:100048001960D968A943D9605968A1435960116EEC
:10005800214311661D4A1E491160D1682142FCD115
:10006800042151600239D46825000D400C42FAD1B0
:100078006421916017498024116017496402116056
:1000880065221649013A002A07D1596901324A40C6
:100098005A61FEE701CA01C3BAE741608560066894
:1000A8002642FCD0EEE7C0460000000800ED00E064
:1000B80000000020EC0000080000002000100240B2
:1000C800100FFF1F10E000E0000400500030004057
:1000D80055550000AAAA0000CCCC0000BF5D000066
:0400E800000C0020E8
:0400000508000009E6
:00000001FF
