:020000040800F2
:080000000020002009000008A7
:1000080021488546174A184B18499A60184A194BCF
:100018008B4224D305232F21C024174A802513603F
:10002800164B6D025963164B11311868A0430143F2
:1000380008201960D968A143D9605968114C8143D7
:1000480059605969002641405961652101390029E3
:10005800F7D05460966017682F42FCD0F6E701CAC3
:1000680001C3D5E70000000800ED00E00000002013
:10007800940000080000002010E000E0001002409A
:0C008800000400507F3E0000002000201B
:0400000508000009E6
:00000001FF
