:020000040800F2
:08000000000C002009000008BB
:100008005B4885464B4A4C4B4C499A604C4A4D4B91
:100018008B427ED34C4A4D49536809681B0C1B041C
:100028000B43802109020B4353600523484C494D7B
:1000380023601E335363506B223B03435363A02357
:10004800DB051868284001438020196059688143FE
:100058005960196A00200901090919628023116C85
:100068005B010B4313643C4B3C4A136000250200C0
:100078000821AC463A4B3F273F269509EDB2174079
:100088009643012D48D0022D4BD0002D02D11F7070
:100098005E709D70150018355832EDB2D2B2BF2D82
:1000A80000D82A000139C9B203330029E3D10B0073
:1000B8002B4A0227D15C08222A4D284EB6683E42B8
:1000C800FBD04EB2002E31DA7C26013A4900D2B27A
:1000D8002E70C9B2002AF0D10133182BE8D1224B77
:1000E80063608023A2605B0222681A42FCD0002869
:1000F8001ED00138C0B280250B2300211B4A6D0297
:10010800013B002BB2D06260A16026682E42FCD071
:10011800F6E701CA01C37BE765461E705D709F70F4
:10012800B8E765465F701D709E70B3E76026CCE740
:10013800BF20E0E70000000800ED00E0000000201C
:100148007C0100080000002000100240100FFF1F73
:1001580010E000E0FF3FFFFF4CC30000003001400B
:10016800000000200C300140571A0000BF5D00005D
:04017800000C002057
:0400000508000009E6
:00000001FF
