:040000006F00D02B92
:10000400000000000000000036020000360200007C
:1000140000000000360200000000000000000000A4
:10002400360200003602000000000000000000005C
:10003400360200000000000036020000000000004C
:100044003602000036020000360200000000000004
:1000540036020000360200003602000036020000BC
:1000640036020000360200003602000036020000AC
:10007400360200003602000036020000360200009C
:10008400360200003602000036020000360200008C
:10009400360200003602000036020000360200007C
:1000A400360200003602000036020000360200006C
:1000B40036020000C40200003602000036020000CE
:1000C400360200003602000036020000360200004C
:0C00D40036020000360200003602000078
:1000E000B7F700E09C4737F700E03E951C47898F43
:1000F000E3CE07FE828079714ECE5EC6B70910FF4F
:10010000B70B00F122D426D252CC56CA5AC862C4C8
:1001100066C206D64AD0AA84A14A37140140FD1B04
:10012000370C0003B70C0004FD19370B4000370AE9
:1001300030000327048093978401E18733777701A8
:1001400063DA0708336797012320E48003270480DC
:100150000945FD1A33773701336767012320E480AF
:10016000413703270480860493FAFA0F3377370167
:10017000336747012320E48093F4F40FE39B0AFAEA
:1001800003270480B70700F1FD177D8FB707000430
:100190005D8F2320E480832704800945B3F737016E
:1001A000B3E767012320F480253F83270480B25002
:1001B0009254B3F93701B3E9490123203481225421
:1001C0000259F249624AD24A424BB24B224C924CFB
:1001D000456182803367870185BF411122C437148E
:1001E000014003270480B70700F126C29384F7FF7C
:1001F000658FB707000306C65D8F2320E48009459D
:10020000C53503270480B70710FFFD177D8FB7079B
:1002100040005D8F2320E4800945D9358327048081
:1002200037070004B240E58FD98F2320F4802244A1
:1002300092444101828001A0B73702401387C181F7
:1002400023A8E74009472391E742239007421387F9
:10025000818223AAE7401387418323ACE740130739
:1002600000042386E7403147A386E74049472393AC
:10027000E7422395E7422392074223940742A3844F
:100280000180A385018023870180A38601802386C6
:100290000180828003A84181814781451387418184
:1002A0009386C1813306F8006395A70091C110C3FE
:1002B0008280834506003386F60085072300B6005A
:1002C0008545CDB75D713ED0B73702404ACA86C674
:1002D00096C49AC29EC022DE26DC2ADA2ED832D6F6
:1002E00036D43AD242CE46CC4EC872C676C47AC212
:1002F0007EC083C6674003C777409387074013F9E2
:10030000F60F898A638006181377F70F9376F70044
:1003100013060002137707036308C734930500032D
:100320006307B704631B07146381063E094763969E
:10033000E61403C76700137707046300071403D7A5
:10034000870042074183630A071203D7A7024207C7
:1003500041834D9B136787002395E70283D787006E
:1003600093F7F70FA384F1802385018039A21387C7
:10037000C18183556700938601812390B60083462F
:10038000170013852181034807002300D5009385BA
:1003900031812380050103C405009387C1819384C3
:1003A000018113740406938921819386318163143A
:1003B000042603C709002D461377F70F6366E60A84
:1003C00005660A071306C6C132971843028703C79A
:1003D00037000946630CC7048D466301D70685477D
:1003E0006314F70885679387C7B423AAF180C947C8
:1003F00003D7040093960701C1824207418363F447
:10040000E7002390D40083D704001D472144C2078E
:10041000C1836366F70003D404001374F40F2285CC
:10042000953D9307F00F631DF40C3DA885679387F6
:1004300007B623AAF1809307B0045DBF83C62700E7
:100440008567138741819387C7B46381C60A636652
:10045000D608D1EA938707061CC31C431307F00F85
:1004600083C70700E396E7F8FD572380F9001307D9
:10047000F00CB73702402391E742B73702400947F3
:100480002383E7409377490091C7B737024011476C
:100490002383E74013791900630A0900713BB737DA
:1004A0000240A38107407D572383E7407254B64042
:1004B000A64216438643E2545255C2553256A256BE
:1004C000125782577248E2485249C249324EA24EF0
:1004D000124F824F6161730020301146638BC6005A
:1004E0009387C70995BF93874706BDB793870708CA
:1004F000A5B79387870B8DB703C727002386E180B5
:1005000083D70400131704014183818FC207C1837D
:100510002390F400B73702402390E7421307000C02
:1005200099BF03C7D1802380E70083D70400054724
:10053000C207C1836374F7002390E40003D404006E
:100540001374F40FF9BD03C72700A386E1800547A4
:100550002387E18075B72390070083D704000947FC
:10056000C207C183C1BF03C706007D8BE30E07EE40
:1005700083C606000947FD8AE398E6EE83C7470075
:100580003737024013070740638FD70093062008D0
:10059000E39CD7EC8357A702C207C18393F7C7FB3D
:1005A00093E7270009A88357A702C207C18393F7DF
:1005B00037F7C207C1832315F70299B703C70600AF
:1005C0007D8BE30307EA83C606000947FD8AE39DA6
:1005D000E6E803C42700E31904E883C74700373778
:1005E000024013070740638FD70093062008E39D5E
:1005F000D7E68357A702C207C18393F7C7FB93E7E8
:10060000370055BF8357A702C207C18393F737F757
:1006100093E7C7004DB783C6050093F60606E3953A
:10062000C6E4834705001306100293F7F70F638AA9
:10063000C700130620026384C702E397D7E2014490
:10064000C1B5B707002093870700214523AAF18091
:10065000913183D704002147C207C183E1BD03471D
:1006600027002384E180E1BF85C20947E397E6E0E4
:10067000A385018003D7A70242074183719B1367BB
:1006800027002395E702D5BB03C721819546137741
:10069000F70F630CD70499466314D706938701813B
:1006A00083D707001D4713840181C207C183A1447A
:1006B0006366F7008354040093F4F40F2685D93E53
:1006C00083570400139704014183858FC207C183B8
:1006D0002310F400B73702402390E74203D72742A4
:1006E000420741831347070479B303C7370083C622
:1006F000C1801377070893F6F60F558FA381E700A3
:10070000130720082391E7028DBB03C731811377BC
:100710000706631FC70483C6218193F6F60F639A09
:10072000E60283D687003706002093F6F60F81474E
:10073000B6882148130606009385C18113F7F80F88
:100740006373D800214713F5F70F6369E500239819
:100750000180B73702401307000431BB3385F50031
:10076000034505003307F60085072300A700F9B706
:100770001307000441BF411122C4371401408327ED
:100780000480370700F17D17F98F3707000306C68D
:10079000D98F2320F4800945A132832704803707AD
:1007A00010FF7D17F98F37073000D98F2320F48091
:1007B0002244B24013058007410135BA411106C6F3
:1007C00022C42A844D3F01453D32130504FB1375B5
:1007D000F50F1532014505324145313A2244B24008
:1007E0004101E5BA411106C622C4C93F6937130564
:1007F00000041132130400087D1401451374F40F32
:10080000DD387DF82244B2404101C1BA411126C20F
:100810009384A18122C403C4040006C62285050472
:100820001D88C93723808400B9370145EFF0BF8C9C
:100830001305300DEFF03F8C13153400EFF0BF8B34
:100840002244B2409244410149BA411122C406C631
:100850001374F50726C24AC01375050649CD011465
:1008600093170401C183139427003E944204213757
:10087000130500044180EFF01F88930454000145E4
:10088000C2040569EFF03F87C180130989C8A287B8
:10089000CA97050403C5070042044180EFF0BF85F5
:1008A000E31794FE1D3A1387818183470700D146E1
:1008B000850793F7F70F63EAF6002300F700B240CD
:1008C000224492440249410182802300070083C7E9
:1008D00091811D47138491816395E702053F03458C
:1008E000040083C7A1812244B240924402493E954C
:1008F0001D894101E1B5A9476319F400238C0180EA
:10090000F9B785072300F400D9BFB547E319F4FA16
:10091000238C018003C59181E9B7411122C406C629
:100920002A840345040009E5B24022444101828043
:100930000504213FFDB7B7170240984F011106CEBD
:1009400022CC26CA4AC84EC61367170198CFD84B87
:10095000856637140140558FD8CB5C4C3707014072
:100960003739024093F707F093E747085CCC894793
:100970001CD01C4F8564938484E693F707F393E7B8
:10098000C70C1CCF23000940EFF01F8B9307900288
:10099000A30109402300F940FD572303F9409307C1
:1009A00010F8A300F9409D472301F9400967B7E714
:1009B00000E023A2E71083270480370710FF7D178C
:1009C000F98F37074000D98F2320F48083270480D4
:1009D000370700F17D17F98F37070004D98F2320DF
:1009E000F48093070002232AF48037A5240093079C
:1009F0000004232AF480130505F0EFF06FEEA53B09
:100A00000145EFF04FEF01444549B387840003C52A
:100A100007000504EFF02FEEE31924FFEFF0EFFBE2
:100A2000238D01800144A144228505041374F40F31
:100A3000553BE31B94FEA38C01800145238C018070
:100A4000B53B05651305C5C4C93D0565130545C618
:100A5000E93505651305C5C7C9350565130545C8DD
:100A60006D3D13844183B7390240138791808347DA
:100A7000070093F7F70FF5DB1386A1808347060085
:100A800093F7F70F9386170093F6F60F2300D6001F
:100A9000A29703C5070083470700FD1793F7F70FD9
:100AA0002300F70091EB83D7A942C207C183CD9BF6
:100AB000C207C1832395F942493B45BF85679387A8
:100AC0006793970100209381E1D317410020130120
:100AD00061537D45731005BC1305800873200530F4
:100AE0008D4573904580130540004D8D7310553032
:100AF00073901734B7070020056793870700130723
:100B0000C7E79386818063E8D70293878180138744
:100B1000418B63E8E702B7270240094798C3B7173C
:100B2000024023A2070037F700E0954614C371473F
:100B300098CF7300203010431107910723AEC7FEF2
:100B4000D9B7910723AE07FEE9B7000012010002F2
:100B500000000008C016DD270001010203010000AB
:100B600009024B000201008019080B000202020179
:100B7000040904000001020201040524001001051B
:100B80002401000004240202052406000107058157
:100B90000308000109040100020A0000040705021D
:100BA000024000000705820240000000040309041F
:100BB000180377006100670069006D0069006E002E
:100BC000610074006F0072000000000018035500FF
:100BD000530042002D0074006F002D004F004C00A8
:100BE00045004400000000001803430048003300A3
:100BF0003200580030003300350043004400430009
:100C00000000000016034300440043002D00530081
:100C100065007200690061006C000000560500006C
:100C20006605000068040000BC05000068040000C0
:100C3000F8040000CE030000680400002205000054
:100C40004605000000050000000500005553422045
:100C5000434443204F4C4544205445524D494E4156
:100C60004C0000002D2D2D2D2D2D2D2D2D2D2D2D1C
:100C70002D2D2D2D2D2D2D2D2D0000005265616463
:100C8000790A00005F0D0000000000000000005F16
:100C900000000007000700147F147F14242A7F2A15
:100CA00012231308646236495522500004030000E1
:100CB000001C2241000041221C0014083E081408B8
:100CC000083E080800806000000808080808006066
:100CD00060000020100804023E5149453E44427F16
:100CE0004040426151494622414949361814127F19
:100CF000102F494949313E494949320301710907D9
:100D00003649494936264949493E003636000000F1
:100D10008068000000081422001414141414002227
:100D200014080002015109063E415D555E7C121116
:100D3000127C7F494949363E414141227F4141224F
:100D40001C7F494949417F090909013E4149493A06
:100D50007F0808087F41417F41412040413F017F9A
:100D6000081422417F404040407F020C027F7F04F4
:100D700008107F3E4141413E7F090909063E41413D
:100D8000C1BE7F09192946264949493201017F011F
:100D9000013F4040403F1F2040201F3F4038403F20
:100DA000631408146307087008076151494543003C
:100DB0007F41410002040810200041417F000804E7
:100DC0000204084040404040000003040020545406
:100DD00054787F4444443838444444283844444494
:100DE0007F385454541808FE09010218A4A4A478AA
:100DF0007F0404047800447D40000080847D00412D
:100E00007F10284400417F40007C047C04787C04EF
:100E10000404783844444438FC2424241818242436
:100E200024FC7C080404080854545420043F444023
:100E3000203C4040403C1C2040201C3C4030403C7A
:100E400044281028441CA0A0A07C4464544C4408AE
:100E5000083641410000FF000041413608080804FF
:100E6000081008FFFFFFFFFFA83F8D14200221009C
:0C0E70007F22003FDA12A1C8AF00000092
:080E7C0000C2010000000800A3
:00000001FF
