:040000006F00007B12
:0400040000000000F8
:10000800056793174500130707F0F98F3D895D8D44
:1000180042054185931725005D8D8D67938737339A
:100028007D8D931715005D8D9567938757557D8D49
:10003800931715005D8D420541818280B7F700E076
:100048009C4737F700E03E951C47898FE3CE07FEB3
:10005800828079714ECE5EC6B70910FFB70B00F1EA
:1000680022D426D252CC56CA5AC862C466C206D610
:100078004AD0AA84A14A37140140FD1B370C00035B
:10008800B70C0004FD19370B4000370A300003276E
:10009800048093978401E1873377770163DA07084F
:1000A800336797012320E480032704800945FD1A5C
:1000B80033773701336767012320E480413703270B
:1000C8000480860493FAFA0F3377370133674701C0
:1000D8002320E48093F4F40FE39B0AFA03270480B7
:1000E800B70700F1FD177D8FB70700045D8F232048
:1000F800E480832704800945B3F73701B3E7670134
:100108002320F480253F83270480B2509254B3F90A
:100118003701B3E949012320348122540259F249B5
:10012800624AD24A424BB24B224C924C4561828081
:100138003367870185BF411122C437140140032763
:100148000480B70700F126C29384F7FF658FB707CD
:10015800000306C65D8F2320E4800945C5350327C3
:100168000480B70710FFFD177D8FB70740005D8F2C
:100178002320E4800945D935832704803707000404
:10018800B240E58FD98F2320F48022449244410164
:100198008280411122C43714014083270480370725
:1001A80000F17D17F98F3707000306C6D98F232082
:1001B800F4800945613583270480370710FF7D17D0
:1001C800F98F37073000D98F2320F4802244B240BA
:1001D800130580074101B5BD411122C426C206C6D8
:1001E8009D47AA84014463E3B7002E84B707002023
:1001F80023819700B7070020A3818700593F014555
:10020800893D130404FB1375F40FA13513F5F400AD
:10021800893513D5440013650501253D2244B240B4
:100228009244410109BF411122C44AC006C626C2F0
:1002380021441309F00F7D141374F40F631824017B
:10024800B24022449244024941018280A28501457C
:100258006137813713050004ED3B93040008FD1452
:10026800014593F4F40FF533FDF8F135A285014506
:10027800A537D1B779714ECEB709002022D426D23E
:100288004AD052CC56CA03CA39005AC85EC606D6E6
:1002980062C42A842E89B28493893900930AF00FA4
:1002A800370B0020B70B0020FD1493F4F40F63966E
:1002B8005403B707002003C527002254B2509254B4
:1002C800F249D24A424BB24B224C4A95D285025946
:1002D800624A1375F50F456101B7653D13050004C2
:1002E8008D3B330C240183470B0005040345F4FFC1
:1002F80089C71345F5FF1375F50FA13BE31584FF77
:100308001D3D83C5090003C52B00850593F5F50F31
:10031800E13559BF79714ECEB709002022D426D2D3
:1003280052CC56CA03CA39005AC85EC606D64AD045
:10033800AA842E8493893900930AF00F370B002082
:10034800B70B00207D141374F40F63155403B7071B
:10035800002003C527002254B2500259F249D24A5C
:10036800424BB24B2695D2859254624A1375F50FCB
:1003780045619DB5393D13050004E13926890345DA
:100388000B007D191379F90F3335A0003305A04010
:100398001375F50F7D39E31409FE713B83C5090018
:1003A80003C52B00850593F5F50F3D3561BF5D71DC
:1003B800CAC04EDE52DC0569056A56DA5AD85ED6DE
:1003C80062D486C6A2C4A6C266D26AD06ECE130A0A
:1003D8004A84B70A0020370B0020B70B0020130906
:1003E800C98593894180370C002083470A0085E33B
:1003F800B640264496440649F259625AD25A425B9C
:10040800B25B225C925C025DF24D6161828013F402
:10041800F70793F70706050A6386071C01144204C9
:1004280041809317240003471B003E94420483C76E
:100438002B00418093842B002DE71307A0076379D5
:10044800F70083C53A000145850593F5F50F693333
:10045800893313050004F53E834C0C00130D54003A
:10046800420D333590013305A0401375F50FD5368D
:10047800135D0D01A28705044204CA9703C507004E
:10048800418063860C001345F5FF1375F50FD136CF
:10049800E312A4FF4D3183C7040099072380F400B9
:1004A800A9B78546631BD7041307A0076379F7002C
:1004B80083C53A000145890593F5F50F313B930C47
:1004C8005400C20CCE8493DC0C01A287CA9703C5E2
:1004D8000700050442042D362380A4002181A3824D
:1004E800A40041808504E31294FF95454E85094692
:1004F800513389450545393DCDBD33078900834CC6
:100508000700130740076379F70083C53A000145E0
:10051800890593F5F50FC93113950C01050441813F
:10052800C53442044180AA84CE8DAA86014D214E4D
:10053800A28705044204CA9703C8070041806313D1
:10054800CD010148428536C642C45D3C2248B246C8
:100558002A86B947994E214E894829430547B3D57C
:10056800DC41335FD8418D89137F3F0063921503C7
:100578006310EF049385F7FFB315B700CD8CC20461
:10058800C180B315F70015A0AA84B286C28C4DB7F6
:100598006390E502631E1F01B315F700CD8CC204FA
:1005A8009385F7FFC180B315B7004D8E420641828F
:1005B800F917FD1ECDF72380DD00A3809D00A182E1
:1005C800A180090D2385DD00A3859D00137DFD0F06
:1005D800890DE31B6DFAA9454E85094661398945A0
:1005E800094511BFA947631FF40083451B0083C752
:1005F8003A00B335B0008505BE9593F5F50F014572
:10060800E13EE5B3B547E312F4DE83C53A00C5BF62
:10061800B717014003A70780B70610FFFD167971C9
:10062800758FB706400006D622D426D24AD04ECEC1
:1006380052CC56CA5AC85EC6558F23A0E78003A776
:100648000780B70600F1FD16758FB7060004558FB1
:100658001386078023A0E780930700025CCA37A5AA
:100668002400930700045CCA130505F0C13A153647
:1006780001458564F93A0144938404C52D49B3873B
:10068800840003C507000504E932E31A24FF056A5C
:10069800856A5534130A0A85938A8AA4056B096406
:1006A800593613046461814501453D36A2890149E3
:1006B8009544930BF00FFD1493F4F40F639A7407A9
:1006C800050442048D6741809387E782E31DF4FCAB
:1006D8003775DC0237040020B7040020130505C075
:1006E80013041400938404000549893A2D3E23001D
:1006F80004007539238024015D3923800400230018
:100708002401753189472300F400553181451305CB
:10071800F005D93405650946930500021305C5C5DA
:10072800913E3745950813050540EFF03F9185BF89
:1007380093971400D29703D70700814763F8E90419
:1007480009476395E40005091379F90F630A090459
:1007580013955700139747003A95420541818A0738
:100768003E95420541811146B5455695213691453C
:100778000D454D368947E390F4F41305CBA3114694
:100788008D45CD3C91450D45713635B7B389E94066
:100798008507C20993F7F70F93D90901054979BF6E
:1007A80091453545853EE1B7930780619701002063
:1007B8009381C10417510020130141847D457310B2
:1007C80005BC13058008732005308D45739045805E
:1007D800130540004D8D7310553073901734B707CB
:1007E80000200567B7060020938707001307C7C9CD
:1007F8009386060063EAD702B707002093870700AD
:100808001387818163E8E702B7270240094798C345
:10081800B717024023A2070037F700E0954614C334
:10082800714798CF7300203010431107910723AE0A
:10083800C7FEC9B7910723AE07FEE9B754657374BD
:100848002030313233340A0001000A006400E80322
:1008580010270000000000000000005F00000007F3
:10086800000700147F147F14242A7F2A12231308F8
:10087800646236495522500004030000001C2241DE
:10088800000041221C0014083E081408083E08080D
:100898000080600000080808080800606000002068
:1008A800100804023E5149453E44427F404042619F
:1008B80051494622414949361814127F102F494997
:1008C80049313E49494932030171090736494949C5
:1008D80036264949493E0036360000008068000047
:1008E800000814220014141414140022140800021E
:1008F800015109063E415D555E7C1211127C7F490B
:100908004949363E414141227F4141221C7F4949A4
:1009180049417F090909013E4149493A7F080808C8
:100928007F41417F41412040413F017F08142241DE
:100938007F404040407F020C027F7F0408107F3ECA
:100948004141413E7F090909063E4141C1BE7F0937
:10095800192946264949493201017F01013F404092
:10096800403F1F2040201F3F4038403F6314081479
:100978006307087008076151494543007F414100FA
:1009880002040810200041417F00080402040840C6
:1009980040404040000609090620545454787F44DA
:1009A8004444383844444428384444447F385454F0
:1009B800541808FE09010218A4A4A4787F040404AA
:1009C8007800447D40000080847D00417F102844E9
:1009D80000417F40007C047C04787C04040478385F
:1009E80044444438FC2424241818242424FC7C0877
:1009F8000404080854545420043F4440203C404018
:100A0800403C1C2040201C3C4030403C44281028DE
:100A1800441CA0A0A07C4464544C440808364141BE
:100A28000000FF000041413608080804081008FFCC
:100A3800FFFFFFFF00000000000000000070707062
:100A4800FCF9F307070707070707F3F9FC7F3F1FC0
:100A5800000000000000001F3F7FFFFEFC000000B8
:100A680000000000FCFEFF1F4F6770707070707010
:100A780070674F1F00000000000000000000F0F841
:100A8800FC000000000000000000001F3F7F000085
:100A98000000000000000000FCFEFF000000000055
:100AA8000000000000070F1F0001030707070707E2
:100AB8000707F3F9FC000080C0C0C0C0C0C0C09FD9
:100AC8003F7FFFFEFC010101010101010000001F41
:100AD8004F6770707070707070604000000103079D
:100AE800070707070707F3F9FC000080C0C0C0C06C
:100AF800C0C0C09F3F7F000000010101010101014A
:100B0800FCFEFF00406070707070707070674F1F5F
:100B1800FCF8F000000000000000F0F8FC7F3F9FA8
:100B2800C0C0C0C0C0C0C09F3F7F0000000101011D
:100B380001010101FCFEFF000000000000000000B0
:100B480000070F1FFCF9F30707070707070703014B
:100B5800007F3F9FC0C0C0C0C0C0C0800000000070
:100B68000001010101010101FCFEFF0040607070FD
:100B78007070707070674F1FFCF9F307070707075D
:100B880007070301007F3F9FC0C0C0C0C0C0C0802E
:100B98000000FFFEFC01010101010101FCFEFF1F35
:100BA8004F6770707070707070674F1FFCF9F307B3
:100BB800070707070707F3F9FC7F3F1F000000003E
:100BC8000000001F3F7F0000000000000000000040
:100BD800FCFEFF00000000000000000000070F1FDF
:100BE800FCF9F307070707070707F3F9FC7F3F9F9F
:100BF800C0C0C0C0C0C0C09F3F7FFFFEFC01010154
:100C080001010101FCFEFF1F4F677070707070706A
:100C180070674F1FFCF9F307070707070707F3F982
:100C2800FC7F3F9FC0C0C0C0C0C0C09F3F7F0000C6
:100C38000001010101010101FCFEFF00406070702C
:100C48007070707070674F1FA83F8D142000DA1203
:100C5800A1C8AF0000000000000000808030080438
:100C68003AFA39010131F8FA120418E0800000005C
:100C7800000000000C3C7E7AF9FFFFCFC7CFFFFFD2
:100C8800FFFF9F8E8EFFFFFFFFFFCFCFFFFFFFFA13
:040C98007A7E3C081C
:00000001FF
