:040000006F00803DD0
:0400040000000000F8
:100008009377F50703A5C180139745001377073841
:100018003A953E95034505009D893355B5400589B8
:10002800828093D735009E07AA9703A581809D8972
:100038003E958547B395B70083470500DD8D2300BE
:10004800B5008280B7F700E09C4737F700E03E959F
:100058001C47898FE3CE07FE828079714ECE5EC63B
:10006800B70910FFB70B00F122D426D252CC56CADA
:100078005AC862C466C206D64AD0AA84A14A3714AE
:100088000140FD1B370C0003B70C0004FD19370BAA
:100098004000370A30000327048093978401E187E2
:1000A8003377770163DA0708336797012320E48001
:1000B800032704800945FD1A337737013367670141
:1000C8002320E480413703270480860493FAFA0F3B
:1000D80033773701336747012320E48093F4F40F23
:1000E800E39B0AFA03270480B70700F1FD177D8F09
:1000F800B70700045D8F2320E48083270480094527
:10010800B3F73701B3E767012320F480253F83273E
:100118000480B2509254B3F93701B3E9490123205E
:10012800348122540259F249624AD24A424BB24BB4
:10013800224C924C456182803367870185BF41110B
:10014800AA9526C29394050122C406C62A84C180B2
:1001580093170401C183639CF404371401400327F7
:100168000480B70700F19384F7FF658FB707000392
:100178005D8F2320E4800945F13503270480B70704
:1001880010FFFD177D8FB70740005D8F2320E480A7
:1001980009454D3D8327048037070004B240E58FA9
:1001A800D98F2320F4802244924441018280034560
:1001B800040005045D3569BF411122C437140140AC
:1001C80083270480370700F17D17F98F370700036D
:1001D80006C6D98F2320F4800945AD3583270480CE
:1001E800370710FF7D17F98F37073000D98F232085
:1001F800F4802244B240130580074101B9BD5D7106
:10020800938701814EDE23A6F18052DC938701C1DA
:10021800A2C4A6C223A4F18086C6CAC056DA5AD898
:100228005ED662D466D26AD06ECE1304004093893B
:10023800C180138A8180B7040020138704001C43FF
:100248007D1442049396270013951700358DC20735
:1002580041815D8D9317250093151500BD8DC181D2
:1002680093170501DD8D0CC31375F50793F5F50399
:100278004180453B79F0B717014003A70780B706CF
:1002880010FFFD16758FB7064000558F23A0E78035
:1002980003A70780B70600F1FD16758FB70600049F
:1002A800558F1386078023A0E780930700025CCA56
:1002B80037A52400930700045CCA130505F05933D9
:1002C800E53D0145593BC545130540468D3D054B68
:1002D8008D4C130C000483270A0083AA090023A06D
:1002E800F90023205A0181473387FA0023000700C9
:1002F800850713070040E399E7FE81440149938786
:10030800F4FF93FBF70F9305F9FF93F5F50F5E855F
:100318002EC6FD31B2452A842685DD31B245138DBE
:100328001400137DFD0F2A946A85D9391374F40FCC
:100338002A94CA855E85E9311374F40F2A94CA8514
:100348006A85930D19006D3993FDFD0F1374F40F31
:100358002A94EE855E856D311374F40F2A94EE8528
:10036800268579391374F40F2A94EE856A854939FC
:100378001374F40F2A94CA8526851374F40F49312F
:10038800631B65019307E4FF93F7F70F636EFB00A8
:10039800CA8526857931CA8526859D3111E563157B
:1003A8009401CA852685B53963928D0393178D010B
:1003B800E18763DB070009351305000479399305E4
:1003C80000405685AD3B01BFEA84814D6E8905BF6B
:1003D8009307602097010020938141421751002024
:1003E8001301C1C17D45731005BC13058008732036
:1003F80005308D4573904580130540004D8D731071
:10040800553073901734B7070020938707001307F8
:1004180080479386818063E8D7029387818013871A
:10042800010163E8E702B7270240094798C3B717F5
:10043800024023A2070037F700E0954614C371472E
:1004480098CF7300203010431107910723AEC7FEE1
:10045800D9B7910723AE07FEE9B70000A83F8D146E
:10046800200021007F22003FDA12A1C8AF0000005F
:08047800EEDFE1AC0000000022
:00000001FF
