:020000040800F2
:0800000000200020950000081B
:1000080001231D4A30B5516BF0200B435363A023E5
:10001800DB051968802481430800A02101430420DE
:100028001960596881435960302198680143C0209C
:100038009960D9688143080040210143D960196A51
:100048000E480840CC21C901014319628023D16BB5
:100058005B030B432020FF21D363094B094ADA6075
:10006800094A1A60DA690242FCD05A6ADD692542F7
:10007800FCD00A409A62F5E700100240FF00FFFF3B
:10008800008000408E2B02000D0000201F4885468E
:10009800154A164B16499A60164A174B8B421FD3BE
:1000A8000223164A11680B431360154B154ADA6090
:1000B8008022196852040A431A608022920419683F
:1000C8001142FCD0022238219A609A680A40102A0C
:1000D800FBD105210C4A11602F225A63FFF790FFCC
:1000E80001CA01C3DAE7C0460000000800ED00E0DD
:1000F800000000202001000800000020002002402D
:10010800001002400208003010E000E0002000204B
:04011800F8B5C04630
:04011C00F8B5C0462C
:04000005080000955A
:00000001FF
