:040000006F0020313C
:0400040000000000F8
:10000800B7F700E09C4737F700E03E951C47898F1B
:10001800E3CE07FE828079714ECE5EC6B70910FF27
:10002800B70B00F122D426D252CC56CA5AC862C4A1
:1000380066C206D64AD0AA84A14A37140140FD1BDD
:10004800370C0003B70C0004FD19370B4000370AC2
:1000580030000327048093978401E1873377770181
:1000680063DA0708336797012320E48003270480B5
:100078000945FD1A33773701336767012320E48088
:10008800413703270480860493FAFA0F3377370140
:10009800336747012320E48093F4F40FE39B0AFAC3
:1000A80003270480B70700F1FD177D8FB707000409
:1000B8005D8F2320E480832704800945B3F7370147
:1000C800B3E767012320F480253F83270480B250DB
:1000D8009254B3F93701B3E94901232034812254FA
:1000E8000259F249624AD24A424BB24B224C924CD4
:1000F800456182803367870185BF011122CC37149F
:10010800014003270480B70700F126CA9384F7FF4C
:1001180056C2B3779700B70A000306CE4AC84EC640
:1001280052C4B3E757012A8A2320F4800945AE89CF
:10013800C13D83260480B70710FF1389F7FFB3F684
:100148002601B7073000DD8E2320D4805285E135A3
:100158004E85D135032704800945658F33675701DC
:100168002320E480713D8327048037074000094538
:10017800B3F72701D98F2320F480593583270480CA
:1001880037070004F240E58FD98F2320F4806244BA
:10019800D2444249B249224A924A056182803717BD
:1001A80002401C4F797122D44AD04ECE52CC06D68A
:1001B80026D256CA5AC85EC662C43724014093E79D
:1001C80017201CCF13040440AD473CC8B7070040B4
:1001D800FD175CC41CC8B7070E0085071CC4B717F9
:1001E800014003A70780B70610FFFD16758FB706F5
:1001F8004000558F23A0E78003A70780B70600F1CA
:10020800FD16758FB7060004558F1386078023A047
:10021800E780930700025CCA930700045CCAC545DF
:1002280013058004B7090020C93D3D4A9389090098
:1002380013098038232A44031C443707400093E7F6
:1002480017001CC41C44D98F1CC41C40898BF5DFC3
:10025800644493970401B7044B00C183938404B5A5
:10026800B3D4F4029147139C0401135C0C41635E00
:100278000C009305000413058006B3049040B53DB7
:10028800139C0401135C0C418D4701470D4B930BE4
:10029800E006938AF7FF93FAFA0F99E737356E016C
:1002A80013050560B13B79B713951A00B387A90008
:1002B80083D607008147B384E70093F4F40F6352B1
:1002C800DC02639A6A03CA9783C50700850493F41E
:1002D800F40F93E505081305800605352687D687AC
:1002E8004DBFB304DC408507139C040193F7F70F57
:1002F800135C0C41C9B73385AB401375F50F8145C5
:10030800E9DCCA9783C50700C9BF9307601A97013C
:1003180000209381A14E17510020130121CE7D4565
:10032800731005BC13058008732005308D45739044
:100338004580130540004D8D731055307390173468
:10034800B7070020938707001307803993868180B9
:1003580063E2D702B7270240094798C3B71702409C
:1003680023A2070037F700E0954614C3714798CFDA
:100378007300203010431107910723AEC7FEC9BF91
:100388003F065B4F666D7D077F6F777C395E7971BD
:0803980001000A006400E80303
:00000001FF
